{
  "contractName": "Art",
  "abi": [
    {
      "inputs": [
        {
          "internalType": "string",
          "name": "name",
          "type": "string"
        },
        {
          "internalType": "string",
          "name": "symbol",
          "type": "string"
        }
      ],
      "stateMutability": "nonpayable",
      "type": "constructor"
    },
    {
      "anonymous": false,
      "inputs": [
        {
          "indexed": true,
          "internalType": "address",
          "name": "owner",
          "type": "address"
        },
        {
          "indexed": true,
          "internalType": "address",
          "name": "approved",
          "type": "address"
        },
        {
          "indexed": true,
          "internalType": "uint256",
          "name": "tokenId",
          "type": "uint256"
        }
      ],
      "name": "Approval",
      "type": "event"
    },
    {
      "anonymous": false,
      "inputs": [
        {
          "indexed": true,
          "internalType": "address",
          "name": "owner",
          "type": "address"
        },
        {
          "indexed": true,
          "internalType": "address",
          "name": "operator",
          "type": "address"
        },
        {
          "indexed": false,
          "internalType": "bool",
          "name": "approved",
          "type": "bool"
        }
      ],
      "name": "ApprovalForAll",
      "type": "event"
    },
    {
      "anonymous": false,
      "inputs": [
        {
          "indexed": true,
          "internalType": "address",
          "name": "previousOwner",
          "type": "address"
        },
        {
          "indexed": true,
          "internalType": "address",
          "name": "newOwner",
          "type": "address"
        }
      ],
      "name": "OwnershipTransferred",
      "type": "event"
    },
    {
      "anonymous": false,
      "inputs": [
        {
          "indexed": true,
          "internalType": "address",
          "name": "from",
          "type": "address"
        },
        {
          "indexed": true,
          "internalType": "address",
          "name": "to",
          "type": "address"
        },
        {
          "indexed": true,
          "internalType": "uint256",
          "name": "tokenId",
          "type": "uint256"
        }
      ],
      "name": "Transfer",
      "type": "event"
    },
    {
      "inputs": [
        {
          "internalType": "address",
          "name": "to",
          "type": "address"
        },
        {
          "internalType": "uint256",
          "name": "tokenId",
          "type": "uint256"
        }
      ],
      "name": "approve",
      "outputs": [],
      "stateMutability": "nonpayable",
      "type": "function"
    },
    {
      "inputs": [
        {
          "internalType": "address",
          "name": "owner",
          "type": "address"
        }
      ],
      "name": "balanceOf",
      "outputs": [
        {
          "internalType": "uint256",
          "name": "",
          "type": "uint256"
        }
      ],
      "stateMutability": "view",
      "type": "function"
    },
    {
      "inputs": [
        {
          "internalType": "string",
          "name": "",
          "type": "string"
        }
      ],
      "name": "existed",
      "outputs": [
        {
          "internalType": "bool",
          "name": "",
          "type": "bool"
        }
      ],
      "stateMutability": "view",
      "type": "function"
    },
    {
      "inputs": [
        {
          "internalType": "uint256",
          "name": "tokenId",
          "type": "uint256"
        }
      ],
      "name": "getApproved",
      "outputs": [
        {
          "internalType": "address",
          "name": "",
          "type": "address"
        }
      ],
      "stateMutability": "view",
      "type": "function"
    },
    {
      "inputs": [
        {
          "internalType": "address",
          "name": "owner",
          "type": "address"
        },
        {
          "internalType": "address",
          "name": "operator",
          "type": "address"
        }
      ],
      "name": "isApprovedForAll",
      "outputs": [
        {
          "internalType": "bool",
          "name": "",
          "type": "bool"
        }
      ],
      "stateMutability": "view",
      "type": "function"
    },
    {
      "inputs": [],
      "name": "name",
      "outputs": [
        {
          "internalType": "string",
          "name": "",
          "type": "string"
        }
      ],
      "stateMutability": "view",
      "type": "function"
    },
    {
      "inputs": [],
      "name": "owner",
      "outputs": [
        {
          "internalType": "address",
          "name": "",
          "type": "address"
        }
      ],
      "stateMutability": "view",
      "type": "function"
    },
    {
      "inputs": [
        {
          "internalType": "uint256",
          "name": "tokenId",
          "type": "uint256"
        }
      ],
      "name": "ownerOf",
      "outputs": [
        {
          "internalType": "address",
          "name": "",
          "type": "address"
        }
      ],
      "stateMutability": "view",
      "type": "function"
    },
    {
      "inputs": [
        {
          "internalType": "address",
          "name": "",
          "type": "address"
        },
        {
          "internalType": "uint256",
          "name": "",
          "type": "uint256"
        }
      ],
      "name": "ownerToTokenId",
      "outputs": [
        {
          "internalType": "uint256",
          "name": "",
          "type": "uint256"
        }
      ],
      "stateMutability": "view",
      "type": "function"
    },
    {
      "inputs": [],
      "name": "renounceOwnership",
      "outputs": [],
      "stateMutability": "nonpayable",
      "type": "function"
    },
    {
      "inputs": [
        {
          "internalType": "address",
          "name": "from",
          "type": "address"
        },
        {
          "internalType": "address",
          "name": "to",
          "type": "address"
        },
        {
          "internalType": "uint256",
          "name": "tokenId",
          "type": "uint256"
        }
      ],
      "name": "safeTransferFrom",
      "outputs": [],
      "stateMutability": "nonpayable",
      "type": "function"
    },
    {
      "inputs": [
        {
          "internalType": "address",
          "name": "from",
          "type": "address"
        },
        {
          "internalType": "address",
          "name": "to",
          "type": "address"
        },
        {
          "internalType": "uint256",
          "name": "tokenId",
          "type": "uint256"
        },
        {
          "internalType": "bytes",
          "name": "_data",
          "type": "bytes"
        }
      ],
      "name": "safeTransferFrom",
      "outputs": [],
      "stateMutability": "nonpayable",
      "type": "function"
    },
    {
      "inputs": [
        {
          "internalType": "address",
          "name": "operator",
          "type": "address"
        },
        {
          "internalType": "bool",
          "name": "approved",
          "type": "bool"
        }
      ],
      "name": "setApprovalForAll",
      "outputs": [],
      "stateMutability": "nonpayable",
      "type": "function"
    },
    {
      "inputs": [
        {
          "internalType": "bytes4",
          "name": "interfaceId",
          "type": "bytes4"
        }
      ],
      "name": "supportsInterface",
      "outputs": [
        {
          "internalType": "bool",
          "name": "",
          "type": "bool"
        }
      ],
      "stateMutability": "view",
      "type": "function"
    },
    {
      "inputs": [],
      "name": "symbol",
      "outputs": [
        {
          "internalType": "string",
          "name": "",
          "type": "string"
        }
      ],
      "stateMutability": "view",
      "type": "function"
    },
    {
      "inputs": [
        {
          "internalType": "uint256",
          "name": "tokenId",
          "type": "uint256"
        }
      ],
      "name": "tokenURI",
      "outputs": [
        {
          "internalType": "string",
          "name": "",
          "type": "string"
        }
      ],
      "stateMutability": "view",
      "type": "function"
    },
    {
      "inputs": [],
      "name": "totalSuply",
      "outputs": [
        {
          "internalType": "uint256",
          "name": "",
          "type": "uint256"
        }
      ],
      "stateMutability": "view",
      "type": "function"
    },
    {
      "inputs": [
        {
          "internalType": "address",
          "name": "from",
          "type": "address"
        },
        {
          "internalType": "address",
          "name": "to",
          "type": "address"
        },
        {
          "internalType": "uint256",
          "name": "tokenId",
          "type": "uint256"
        }
      ],
      "name": "transferFrom",
      "outputs": [],
      "stateMutability": "nonpayable",
      "type": "function"
    },
    {
      "inputs": [
        {
          "internalType": "address",
          "name": "newOwner",
          "type": "address"
        }
      ],
      "name": "transferOwnership",
      "outputs": [],
      "stateMutability": "nonpayable",
      "type": "function"
    },
    {
      "inputs": [
        {
          "internalType": "address",
          "name": "_to",
          "type": "address"
        },
        {
          "internalType": "string",
          "name": "_hash",
          "type": "string"
        }
      ],
      "name": "createNewNFT",
      "outputs": [
        {
          "internalType": "uint256",
          "name": "",
          "type": "uint256"
        }
      ],
      "stateMutability": "nonpayable",
      "type": "function"
    },
    {
      "inputs": [
        {
          "internalType": "address",
          "name": "_to",
          "type": "address"
        },
        {
          "internalType": "uint256",
          "name": "_tokenId",
          "type": "uint256"
        }
      ],
      "name": "setOwnerToTokenId",
      "outputs": [],
      "stateMutability": "nonpayable",
      "type": "function"
    },
    {
      "inputs": [
        {
          "internalType": "address",
          "name": "_owner",
          "type": "address"
        }
      ],
      "name": "getTokenList",
      "outputs": [
        {
          "internalType": "uint256[]",
          "name": "",
          "type": "uint256[]"
        }
      ],
      "stateMutability": "view",
      "type": "function"
    }
  ],
  "bytecode": "0x60806040523480156200001157600080fd5b5060405162003aa438038062003aa4833981810160405281019062000037919062000285565b818181600090805190602001906200005192919062000163565b5080600190805190602001906200006a92919062000163565b5050506200008d620000816200009560201b60201c565b6200009d60201b60201c565b505062000429565b600033905090565b6000600760009054906101000a900473ffffffffffffffffffffffffffffffffffffffff16905081600760006101000a81548173ffffffffffffffffffffffffffffffffffffffff021916908373ffffffffffffffffffffffffffffffffffffffff1602179055508173ffffffffffffffffffffffffffffffffffffffff168173ffffffffffffffffffffffffffffffffffffffff167f8be0079c531659141344cd1fd0a4f28419497f9722a3daafe3b4186f6b6457e060405160405180910390a35050565b828054620001719062000395565b90600052602060002090601f016020900481019282620001955760008555620001e1565b82601f10620001b057805160ff1916838001178555620001e1565b82800160010185558215620001e1579182015b82811115620001e0578251825591602001919060010190620001c3565b5b509050620001f09190620001f4565b5090565b5b808211156200020f576000816000905550600101620001f5565b5090565b60006200022a62000224846200032c565b620002f8565b9050828152602081018484840111156200024357600080fd5b620002508482856200035f565b509392505050565b600082601f8301126200026a57600080fd5b81516200027c84826020860162000213565b91505092915050565b600080604083850312156200029957600080fd5b600083015167ffffffffffffffff811115620002b457600080fd5b620002c28582860162000258565b925050602083015167ffffffffffffffff811115620002e057600080fd5b620002ee8582860162000258565b9150509250929050565b6000604051905081810181811067ffffffffffffffff82111715620003225762000321620003fa565b5b8060405250919050565b600067ffffffffffffffff8211156200034a5762000349620003fa565b5b601f19601f8301169050602081019050919050565b60005b838110156200037f57808201518184015260208101905062000362565b838111156200038f576000848401525b50505050565b60006002820490506001821680620003ae57607f821691505b60208210811415620003c557620003c4620003cb565b5b50919050565b7f4e487b7100000000000000000000000000000000000000000000000000000000600052602260045260246000fd5b7f4e487b7100000000000000000000000000000000000000000000000000000000600052604160045260246000fd5b61366b80620004396000396000f3fe608060405234801561001057600080fd5b50600436106101425760003560e01c806395d89b41116100b8578063c87b56dd1161007c578063c87b56dd14610375578063d78dd96b146103a5578063d8a30732146103c1578063e985e9c5146103f1578063f2fde38b14610421578063f31dfbee1461043d57610142565b806395d89b41146102d1578063a22cb465146102ef578063a2a967991461030b578063b88d4fde14610329578063c7bde51e1461034557610142565b806342842e0e1161010a57806342842e0e146101fd5780636352211e1461021957806370a0823114610249578063715018a6146102795780637cf87f9d146102835780638da5cb5b146102b357610142565b806301ffc9a71461014757806306fdde0314610177578063081812fc14610195578063095ea7b3146101c557806323b872dd146101e1575b600080fd5b610161600480360381019061015c9190612581565b61046d565b60405161016e9190612f2a565b60405180910390f35b61017f61054f565b60405161018c9190612f45565b60405180910390f35b6101af60048036038101906101aa9190612614565b6105e1565b6040516101bc9190612ea1565b60405180910390f35b6101df60048036038101906101da9190612545565b610666565b005b6101fb60048036038101906101f691906123eb565b61077e565b005b610217600480360381019061021291906123eb565b6107de565b005b610233600480360381019061022e9190612614565b6107fe565b6040516102409190612ea1565b60405180910390f35b610263600480360381019061025e9190612386565b6108b0565b60405161027091906131c7565b60405180910390f35b610281610968565b005b61029d600480360381019061029891906124f1565b6109f0565b6040516102aa91906131c7565b60405180910390f35b6102bb610bc5565b6040516102c89190612ea1565b60405180910390f35b6102d9610bef565b6040516102e69190612f45565b60405180910390f35b610309600480360381019061030491906124b5565b610c81565b005b610313610e02565b60405161032091906131c7565b60405180910390f35b610343600480360381019061033e919061243a565b610e08565b005b61035f600480360381019061035a9190612545565b610e6a565b60405161036c91906131c7565b60405180910390f35b61038f600480360381019061038a9190612614565b610e9b565b60405161039c9190612f45565b60405180910390f35b6103bf60048036038101906103ba9190612545565b610fed565b005b6103db60048036038101906103d69190612386565b6110d3565b6040516103e89190612f08565b60405180910390f35b61040b600480360381019061040691906123af565b61134f565b6040516104189190612f2a565b60405180910390f35b61043b60048036038101906104369190612386565b6113e3565b005b610457600480360381019061045291906125d3565b6114db565b6040516104649190612f2a565b60405180910390f35b60007f80ac58cd000000000000000000000000000000000000000000000000000000007bffffffffffffffffffffffffffffffffffffffffffffffffffffffff1916827bffffffffffffffffffffffffffffffffffffffffffffffffffffffff1916148061053857507f5b5e139f000000000000000000000000000000000000000000000000000000007bffffffffffffffffffffffffffffffffffffffffffffffffffffffff1916827bffffffffffffffffffffffffffffffffffffffffffffffffffffffff1916145b80610548575061054782611511565b5b9050919050565b60606000805461055e90613460565b80601f016020809104026020016040519081016040528092919081815260200182805461058a90613460565b80156105d75780601f106105ac576101008083540402835291602001916105d7565b820191906000526020600020905b8154815290600101906020018083116105ba57829003601f168201915b5050505050905090565b60006105ec8261157b565b61062b576040517f08c379a000000000000000000000000000000000000000000000000000000000815260040161062290613107565b60405180910390fd5b6004600083815260200190815260200160002060009054906101000a900473ffffffffffffffffffffffffffffffffffffffff169050919050565b6000610671826107fe565b90508073ffffffffffffffffffffffffffffffffffffffff168373ffffffffffffffffffffffffffffffffffffffff1614156106e2576040517f08c379a00000000000000000000000000000000000000000000000000000000081526004016106d990613187565b60405180910390fd5b8073ffffffffffffffffffffffffffffffffffffffff166107016115e7565b73ffffffffffffffffffffffffffffffffffffffff161480610730575061072f8161072a6115e7565b61134f565b5b61076f576040517f08c379a000000000000000000000000000000000000000000000000000000000815260040161076690613047565b60405180910390fd5b61077983836115ef565b505050565b61078f6107896115e7565b826116a8565b6107ce576040517f08c379a00000000000000000000000000000000000000000000000000000000081526004016107c5906131a7565b60405180910390fd5b6107d9838383611786565b505050565b6107f983838360405180602001604052806000815250610e08565b505050565b6000806002600084815260200190815260200160002060009054906101000a900473ffffffffffffffffffffffffffffffffffffffff169050600073ffffffffffffffffffffffffffffffffffffffff168173ffffffffffffffffffffffffffffffffffffffff1614156108a7576040517f08c379a000000000000000000000000000000000000000000000000000000000815260040161089e90613087565b60405180910390fd5b80915050919050565b60008073ffffffffffffffffffffffffffffffffffffffff168273ffffffffffffffffffffffffffffffffffffffff161415610921576040517f08c379a000000000000000000000000000000000000000000000000000000000815260040161091890613067565b60405180910390fd5b600360008373ffffffffffffffffffffffffffffffffffffffff1673ffffffffffffffffffffffffffffffffffffffff168152602001908152602001600020549050919050565b6109706115e7565b73ffffffffffffffffffffffffffffffffffffffff1661098e610bc5565b73ffffffffffffffffffffffffffffffffffffffff16146109e4576040517f08c379a00000000000000000000000000000000000000000000000000000000081526004016109db90613127565b60405180910390fd5b6109ee60006119e2565b565b60006109fa6115e7565b73ffffffffffffffffffffffffffffffffffffffff16610a18610bc5565b73ffffffffffffffffffffffffffffffffffffffff1614610a6e576040517f08c379a0000000000000000000000000000000000000000000000000000000008152600401610a6590613127565b60405180910390fd5b600a82604051610a7e9190612e66565b908152602001604051809103902060009054906101000a900460ff1615610ada576040517f08c379a0000000000000000000000000000000000000000000000000000000008152600401610ad190612f67565b60405180910390fd5b610ae46009611aa8565b6000610af06009611abe565b90506001600a84604051610b049190612e66565b908152602001604051809103902060006101000a81548160ff021916908315150217905550600b60008573ffffffffffffffffffffffffffffffffffffffff1673ffffffffffffffffffffffffffffffffffffffff168152602001908152602001600020819080600181540180825580915050600190039060005260206000200160009091909190915055610b998482611acc565b610ba38184611c9a565b60086000815480929190610bb690613492565b91905055508091505092915050565b6000600760009054906101000a900473ffffffffffffffffffffffffffffffffffffffff16905090565b606060018054610bfe90613460565b80601f0160208091040260200160405190810160405280929190818152602001828054610c2a90613460565b8015610c775780601f10610c4c57610100808354040283529160200191610c77565b820191906000526020600020905b815481529060010190602001808311610c5a57829003601f168201915b5050505050905090565b610c896115e7565b73ffffffffffffffffffffffffffffffffffffffff168273ffffffffffffffffffffffffffffffffffffffff161415610cf7576040517f08c379a0000000000000000000000000000000000000000000000000000000008152600401610cee90613007565b60405180910390fd5b8060056000610d046115e7565b73ffffffffffffffffffffffffffffffffffffffff1673ffffffffffffffffffffffffffffffffffffffff16815260200190815260200160002060008473ffffffffffffffffffffffffffffffffffffffff1673ffffffffffffffffffffffffffffffffffffffff16815260200190815260200160002060006101000a81548160ff0219169083151502179055508173ffffffffffffffffffffffffffffffffffffffff16610db16115e7565b73ffffffffffffffffffffffffffffffffffffffff167f17307eab39ab6107e8899845ad3d59bd9653f200f220920489ca2b5937696c3183604051610df69190612f2a565b60405180910390a35050565b60085481565b610e19610e136115e7565b836116a8565b610e58576040517f08c379a0000000000000000000000000000000000000000000000000000000008152600401610e4f906131a7565b60405180910390fd5b610e6484848484611d0e565b50505050565b600b6020528160005260406000208181548110610e8657600080fd5b90600052602060002001600091509150505481565b6060610ea68261157b565b610ee5576040517f08c379a0000000000000000000000000000000000000000000000000000000008152600401610edc906130e7565b60405180910390fd5b6000600660008481526020019081526020016000208054610f0590613460565b80601f0160208091040260200160405190810160405280929190818152602001828054610f3190613460565b8015610f7e5780601f10610f5357610100808354040283529160200191610f7e565b820191906000526020600020905b815481529060010190602001808311610f6157829003601f168201915b505050505090506000610f8f611d6a565b9050600081511415610fa5578192505050610fe8565b600082511115610fda578082604051602001610fc2929190612e7d565b60405160208183030381529060405292505050610fe8565b610fe384611da7565b925050505b919050565b610ff56115e7565b73ffffffffffffffffffffffffffffffffffffffff16611013610bc5565b73ffffffffffffffffffffffffffffffffffffffff1614611069576040517f08c379a000000000000000000000000000000000000000000000000000000000815260040161106090613127565b60405180910390fd5b600b60008373ffffffffffffffffffffffffffffffffffffffff1673ffffffffffffffffffffffffffffffffffffffff1681526020019081526020016000208190806001815401808255809150506001900390600052602060002001600090919091909150555050565b606060006110e0836108b0565b67ffffffffffffffff81111561111f577f4e487b7100000000000000000000000000000000000000000000000000000000600052604160045260246000fd5b60405190808252806020026020018201604052801561114d5781602001602082028036833780820191505090505b5090506000805b600b60008673ffffffffffffffffffffffffffffffffffffffff1673ffffffffffffffffffffffffffffffffffffffff16815260200190815260200160002080549050811015611344578473ffffffffffffffffffffffffffffffffffffffff1661123f600b60008873ffffffffffffffffffffffffffffffffffffffff1673ffffffffffffffffffffffffffffffffffffffff168152602001908152602001600020838154811061122f577f4e487b7100000000000000000000000000000000000000000000000000000000600052603260045260246000fd5b90600052602060002001546107fe565b73ffffffffffffffffffffffffffffffffffffffff16141561133157600b60008673ffffffffffffffffffffffffffffffffffffffff1673ffffffffffffffffffffffffffffffffffffffff16815260200190815260200160002081815481106112d2577f4e487b7100000000000000000000000000000000000000000000000000000000600052603260045260246000fd5b9060005260206000200154838381518110611316577f4e487b7100000000000000000000000000000000000000000000000000000000600052603260045260246000fd5b602002602001018181525050818061132d90613492565b9250505b808061133c90613492565b915050611154565b508192505050919050565b6000600560008473ffffffffffffffffffffffffffffffffffffffff1673ffffffffffffffffffffffffffffffffffffffff16815260200190815260200160002060008373ffffffffffffffffffffffffffffffffffffffff1673ffffffffffffffffffffffffffffffffffffffff16815260200190815260200160002060009054906101000a900460ff16905092915050565b6113eb6115e7565b73ffffffffffffffffffffffffffffffffffffffff16611409610bc5565b73ffffffffffffffffffffffffffffffffffffffff161461145f576040517f08c379a000000000000000000000000000000000000000000000000000000000815260040161145690613127565b60405180910390fd5b600073ffffffffffffffffffffffffffffffffffffffff168173ffffffffffffffffffffffffffffffffffffffff1614156114cf576040517f08c379a00000000000000000000000000000000000000000000000000000000081526004016114c690612fa7565b60405180910390fd5b6114d8816119e2565b50565b600a818051602081018201805184825260208301602085012081835280955050505050506000915054906101000a900460ff1681565b60007f01ffc9a7000000000000000000000000000000000000000000000000000000007bffffffffffffffffffffffffffffffffffffffffffffffffffffffff1916827bffffffffffffffffffffffffffffffffffffffffffffffffffffffff1916149050919050565b60008073ffffffffffffffffffffffffffffffffffffffff166002600084815260200190815260200160002060009054906101000a900473ffffffffffffffffffffffffffffffffffffffff1673ffffffffffffffffffffffffffffffffffffffff1614159050919050565b600033905090565b816004600083815260200190815260200160002060006101000a81548173ffffffffffffffffffffffffffffffffffffffff021916908373ffffffffffffffffffffffffffffffffffffffff160217905550808273ffffffffffffffffffffffffffffffffffffffff16611662836107fe565b73ffffffffffffffffffffffffffffffffffffffff167f8c5be1e5ebec7d5bd14f71427d1e84f3dd0314c0f7b2291e5b200ac8c7c3b92560405160405180910390a45050565b60006116b38261157b565b6116f2576040517f08c379a00000000000000000000000000000000000000000000000000000000081526004016116e990613027565b60405180910390fd5b60006116fd836107fe565b90508073ffffffffffffffffffffffffffffffffffffffff168473ffffffffffffffffffffffffffffffffffffffff16148061176c57508373ffffffffffffffffffffffffffffffffffffffff16611754846105e1565b73ffffffffffffffffffffffffffffffffffffffff16145b8061177d575061177c818561134f565b5b91505092915050565b8273ffffffffffffffffffffffffffffffffffffffff166117a6826107fe565b73ffffffffffffffffffffffffffffffffffffffff16146117fc576040517f08c379a00000000000000000000000000000000000000000000000000000000081526004016117f390613147565b60405180910390fd5b600073ffffffffffffffffffffffffffffffffffffffff168273ffffffffffffffffffffffffffffffffffffffff16141561186c576040517f08c379a000000000000000000000000000000000000000000000000000000000815260040161186390612fe7565b60405180910390fd5b611877838383611e4e565b6118826000826115ef565b6001600360008573ffffffffffffffffffffffffffffffffffffffff1673ffffffffffffffffffffffffffffffffffffffff16815260200190815260200160002060008282546118d29190613376565b925050819055506001600360008473ffffffffffffffffffffffffffffffffffffffff1673ffffffffffffffffffffffffffffffffffffffff168152602001908152602001600020600082825461192991906132ef565b92505081905550816002600083815260200190815260200160002060006101000a81548173ffffffffffffffffffffffffffffffffffffffff021916908373ffffffffffffffffffffffffffffffffffffffff160217905550808273ffffffffffffffffffffffffffffffffffffffff168473ffffffffffffffffffffffffffffffffffffffff167fddf252ad1be2c89b69c2b068fc378daa952ba7f163c4a11628f55a4df523b3ef60405160405180910390a4505050565b6000600760009054906101000a900473ffffffffffffffffffffffffffffffffffffffff16905081600760006101000a81548173ffffffffffffffffffffffffffffffffffffffff021916908373ffffffffffffffffffffffffffffffffffffffff1602179055508173ffffffffffffffffffffffffffffffffffffffff168173ffffffffffffffffffffffffffffffffffffffff167f8be0079c531659141344cd1fd0a4f28419497f9722a3daafe3b4186f6b6457e060405160405180910390a35050565b6001816000016000828254019250508190555050565b600081600001549050919050565b600073ffffffffffffffffffffffffffffffffffffffff168273ffffffffffffffffffffffffffffffffffffffff161415611b3c576040517f08c379a0000000000000000000000000000000000000000000000000000000008152600401611b33906130c7565b60405180910390fd5b611b458161157b565b15611b85576040517f08c379a0000000000000000000000000000000000000000000000000000000008152600401611b7c90612fc7565b60405180910390fd5b611b9160008383611e4e565b6001600360008473ffffffffffffffffffffffffffffffffffffffff1673ffffffffffffffffffffffffffffffffffffffff1681526020019081526020016000206000828254611be191906132ef565b92505081905550816002600083815260200190815260200160002060006101000a81548173ffffffffffffffffffffffffffffffffffffffff021916908373ffffffffffffffffffffffffffffffffffffffff160217905550808273ffffffffffffffffffffffffffffffffffffffff16600073ffffffffffffffffffffffffffffffffffffffff167fddf252ad1be2c89b69c2b068fc378daa952ba7f163c4a11628f55a4df523b3ef60405160405180910390a45050565b611ca38261157b565b611ce2576040517f08c379a0000000000000000000000000000000000000000000000000000000008152600401611cd9906130a7565b60405180910390fd5b80600660008481526020019081526020016000209080519060200190611d099291906121aa565b505050565b611d19848484611786565b611d2584848484611e53565b611d64576040517f08c379a0000000000000000000000000000000000000000000000000000000008152600401611d5b90612f87565b60405180910390fd5b50505050565b60606040518060400160405280601581526020017f68747470733a2f2f697066732e696f2f697066732f0000000000000000000000815250905090565b6060611db28261157b565b611df1576040517f08c379a0000000000000000000000000000000000000000000000000000000008152600401611de890613167565b60405180910390fd5b6000611dfb611d6a565b90506000815111611e1b5760405180602001604052806000815250611e46565b80611e2584611fea565b604051602001611e36929190612e7d565b6040516020818303038152906040525b915050919050565b505050565b6000611e748473ffffffffffffffffffffffffffffffffffffffff16612197565b15611fdd578373ffffffffffffffffffffffffffffffffffffffff1663150b7a02611e9d6115e7565b8786866040518563ffffffff1660e01b8152600401611ebf9493929190612ebc565b602060405180830381600087803b158015611ed957600080fd5b505af1925050508015611f0a57506040513d601f19601f82011682018060405250810190611f0791906125aa565b60015b611f8d573d8060008114611f3a576040519150601f19603f3d011682016040523d82523d6000602084013e611f3f565b606091505b50600081511415611f85576040517f08c379a0000000000000000000000000000000000000000000000000000000008152600401611f7c90612f87565b60405180910390fd5b805181602001fd5b63150b7a0260e01b7bffffffffffffffffffffffffffffffffffffffffffffffffffffffff1916817bffffffffffffffffffffffffffffffffffffffffffffffffffffffff191614915050611fe2565b600190505b949350505050565b60606000821415612032576040518060400160405280600181526020017f30000000000000000000000000000000000000000000000000000000000000008152509050612192565b600082905060005b6000821461206457808061204d90613492565b915050600a8261205d9190613345565b915061203a565b60008167ffffffffffffffff8111156120a6577f4e487b7100000000000000000000000000000000000000000000000000000000600052604160045260246000fd5b6040519080825280601f01601f1916602001820160405280156120d85781602001600182028036833780820191505090505b5090505b6000851461218b576001826120f19190613376565b9150600a8561210091906134db565b603061210c91906132ef565b60f81b818381518110612148577f4e487b7100000000000000000000000000000000000000000000000000000000600052603260045260246000fd5b60200101907effffffffffffffffffffffffffffffffffffffffffffffffffffffffffffff1916908160001a905350600a856121849190613345565b94506120dc565b8093505050505b919050565b600080823b905060008111915050919050565b8280546121b690613460565b90600052602060002090601f0160209004810192826121d8576000855561221f565b82601f106121f157805160ff191683800117855561221f565b8280016001018555821561221f579182015b8281111561221e578251825591602001919060010190612203565b5b50905061222c9190612230565b5090565b5b80821115612249576000816000905550600101612231565b5090565b600061226061225b84613213565b6131e2565b90508281526020810184848401111561227857600080fd5b61228384828561341e565b509392505050565b600061229e61229984613243565b6131e2565b9050828152602081018484840111156122b657600080fd5b6122c184828561341e565b509392505050565b6000813590506122d8816135d9565b92915050565b6000813590506122ed816135f0565b92915050565b60008135905061230281613607565b92915050565b60008151905061231781613607565b92915050565b600082601f83011261232e57600080fd5b813561233e84826020860161224d565b91505092915050565b600082601f83011261235857600080fd5b813561236884826020860161228b565b91505092915050565b6000813590506123808161361e565b92915050565b60006020828403121561239857600080fd5b60006123a6848285016122c9565b91505092915050565b600080604083850312156123c257600080fd5b60006123d0858286016122c9565b92505060206123e1858286016122c9565b9150509250929050565b60008060006060848603121561240057600080fd5b600061240e868287016122c9565b935050602061241f868287016122c9565b925050604061243086828701612371565b9150509250925092565b6000806000806080858703121561245057600080fd5b600061245e878288016122c9565b945050602061246f878288016122c9565b935050604061248087828801612371565b925050606085013567ffffffffffffffff81111561249d57600080fd5b6124a98782880161231d565b91505092959194509250565b600080604083850312156124c857600080fd5b60006124d6858286016122c9565b92505060206124e7858286016122de565b9150509250929050565b6000806040838503121561250457600080fd5b6000612512858286016122c9565b925050602083013567ffffffffffffffff81111561252f57600080fd5b61253b85828601612347565b9150509250929050565b6000806040838503121561255857600080fd5b6000612566858286016122c9565b925050602061257785828601612371565b9150509250929050565b60006020828403121561259357600080fd5b60006125a1848285016122f3565b91505092915050565b6000602082840312156125bc57600080fd5b60006125ca84828501612308565b91505092915050565b6000602082840312156125e557600080fd5b600082013567ffffffffffffffff8111156125ff57600080fd5b61260b84828501612347565b91505092915050565b60006020828403121561262657600080fd5b600061263484828501612371565b91505092915050565b60006126498383612e48565b60208301905092915050565b61265e816133aa565b82525050565b600061266f82613283565b61267981856132b1565b935061268483613273565b8060005b838110156126b557815161269c888261263d565b97506126a7836132a4565b925050600181019050612688565b5085935050505092915050565b6126cb816133bc565b82525050565b60006126dc8261328e565b6126e681856132c2565b93506126f681856020860161342d565b6126ff816135c8565b840191505092915050565b600061271582613299565b61271f81856132d3565b935061272f81856020860161342d565b612738816135c8565b840191505092915050565b600061274e82613299565b61275881856132e4565b935061276881856020860161342d565b80840191505092915050565b60006127816013836132d3565b91507f4172743a204e46542069732065786973746564000000000000000000000000006000830152602082019050919050565b60006127c16032836132d3565b91507f4552433732313a207472616e7366657220746f206e6f6e20455243373231526560008301527f63656976657220696d706c656d656e74657200000000000000000000000000006020830152604082019050919050565b60006128276026836132d3565b91507f4f776e61626c653a206e6577206f776e657220697320746865207a65726f206160008301527f64647265737300000000000000000000000000000000000000000000000000006020830152604082019050919050565b600061288d601c836132d3565b91507f4552433732313a20746f6b656e20616c7265616479206d696e746564000000006000830152602082019050919050565b60006128cd6024836132d3565b91507f4552433732313a207472616e7366657220746f20746865207a65726f2061646460008301527f72657373000000000000000000000000000000000000000000000000000000006020830152604082019050919050565b60006129336019836132d3565b91507f4552433732313a20617070726f766520746f2063616c6c6572000000000000006000830152602082019050919050565b6000612973602c836132d3565b91507f4552433732313a206f70657261746f7220717565727920666f72206e6f6e657860008301527f697374656e7420746f6b656e00000000000000000000000000000000000000006020830152604082019050919050565b60006129d96038836132d3565b91507f4552433732313a20617070726f76652063616c6c6572206973206e6f74206f7760008301527f6e6572206e6f7220617070726f76656420666f7220616c6c00000000000000006020830152604082019050919050565b6000612a3f602a836132d3565b91507f4552433732313a2062616c616e636520717565727920666f7220746865207a6560008301527f726f2061646472657373000000000000000000000000000000000000000000006020830152604082019050919050565b6000612aa56029836132d3565b91507f4552433732313a206f776e657220717565727920666f72206e6f6e657869737460008301527f656e7420746f6b656e00000000000000000000000000000000000000000000006020830152604082019050919050565b6000612b0b602e836132d3565b91507f45524337323155524953746f726167653a2055524920736574206f66206e6f6e60008301527f6578697374656e7420746f6b656e0000000000000000000000000000000000006020830152604082019050919050565b6000612b716020836132d3565b91507f4552433732313a206d696e7420746f20746865207a65726f20616464726573736000830152602082019050919050565b6000612bb16031836132d3565b91507f45524337323155524953746f726167653a2055524920717565727920666f722060008301527f6e6f6e6578697374656e7420746f6b656e0000000000000000000000000000006020830152604082019050919050565b6000612c17602c836132d3565b91507f4552433732313a20617070726f76656420717565727920666f72206e6f6e657860008301527f697374656e7420746f6b656e00000000000000000000000000000000000000006020830152604082019050919050565b6000612c7d6020836132d3565b91507f4f776e61626c653a2063616c6c6572206973206e6f7420746865206f776e65726000830152602082019050919050565b6000612cbd6029836132d3565b91507f4552433732313a207472616e73666572206f6620746f6b656e2074686174206960008301527f73206e6f74206f776e00000000000000000000000000000000000000000000006020830152604082019050919050565b6000612d23602f836132d3565b91507f4552433732314d657461646174613a2055524920717565727920666f72206e6f60008301527f6e6578697374656e7420746f6b656e00000000000000000000000000000000006020830152604082019050919050565b6000612d896021836132d3565b91507f4552433732313a20617070726f76616c20746f2063757272656e74206f776e6560008301527f72000000000000000000000000000000000000000000000000000000000000006020830152604082019050919050565b6000612def6031836132d3565b91507f4552433732313a207472616e736665722063616c6c6572206973206e6f74206f60008301527f776e6572206e6f7220617070726f7665640000000000000000000000000000006020830152604082019050919050565b612e5181613414565b82525050565b612e6081613414565b82525050565b6000612e728284612743565b915081905092915050565b6000612e898285612743565b9150612e958284612743565b91508190509392505050565b6000602082019050612eb66000830184612655565b92915050565b6000608082019050612ed16000830187612655565b612ede6020830186612655565b612eeb6040830185612e57565b8181036060830152612efd81846126d1565b905095945050505050565b60006020820190508181036000830152612f228184612664565b905092915050565b6000602082019050612f3f60008301846126c2565b92915050565b60006020820190508181036000830152612f5f818461270a565b905092915050565b60006020820190508181036000830152612f8081612774565b9050919050565b60006020820190508181036000830152612fa0816127b4565b9050919050565b60006020820190508181036000830152612fc08161281a565b9050919050565b60006020820190508181036000830152612fe081612880565b9050919050565b60006020820190508181036000830152613000816128c0565b9050919050565b6000602082019050818103600083015261302081612926565b9050919050565b6000602082019050818103600083015261304081612966565b9050919050565b60006020820190508181036000830152613060816129cc565b9050919050565b6000602082019050818103600083015261308081612a32565b9050919050565b600060208201905081810360008301526130a081612a98565b9050919050565b600060208201905081810360008301526130c081612afe565b9050919050565b600060208201905081810360008301526130e081612b64565b9050919050565b6000602082019050818103600083015261310081612ba4565b9050919050565b6000602082019050818103600083015261312081612c0a565b9050919050565b6000602082019050818103600083015261314081612c70565b9050919050565b6000602082019050818103600083015261316081612cb0565b9050919050565b6000602082019050818103600083015261318081612d16565b9050919050565b600060208201905081810360008301526131a081612d7c565b9050919050565b600060208201905081810360008301526131c081612de2565b9050919050565b60006020820190506131dc6000830184612e57565b92915050565b6000604051905081810181811067ffffffffffffffff8211171561320957613208613599565b5b8060405250919050565b600067ffffffffffffffff82111561322e5761322d613599565b5b601f19601f8301169050602081019050919050565b600067ffffffffffffffff82111561325e5761325d613599565b5b601f19601f8301169050602081019050919050565b6000819050602082019050919050565b600081519050919050565b600081519050919050565b600081519050919050565b6000602082019050919050565b600082825260208201905092915050565b600082825260208201905092915050565b600082825260208201905092915050565b600081905092915050565b60006132fa82613414565b915061330583613414565b9250827fffffffffffffffffffffffffffffffffffffffffffffffffffffffffffffffff0382111561333a5761333961350c565b5b828201905092915050565b600061335082613414565b915061335b83613414565b92508261336b5761336a61353b565b5b828204905092915050565b600061338182613414565b915061338c83613414565b92508282101561339f5761339e61350c565b5b828203905092915050565b60006133b5826133f4565b9050919050565b60008115159050919050565b60007fffffffff0000000000000000000000000000000000000000000000000000000082169050919050565b600073ffffffffffffffffffffffffffffffffffffffff82169050919050565b6000819050919050565b82818337600083830152505050565b60005b8381101561344b578082015181840152602081019050613430565b8381111561345a576000848401525b50505050565b6000600282049050600182168061347857607f821691505b6020821081141561348c5761348b61356a565b5b50919050565b600061349d82613414565b91507fffffffffffffffffffffffffffffffffffffffffffffffffffffffffffffffff8214156134d0576134cf61350c565b5b600182019050919050565b60006134e682613414565b91506134f183613414565b9250826135015761350061353b565b5b828206905092915050565b7f4e487b7100000000000000000000000000000000000000000000000000000000600052601160045260246000fd5b7f4e487b7100000000000000000000000000000000000000000000000000000000600052601260045260246000fd5b7f4e487b7100000000000000000000000000000000000000000000000000000000600052602260045260246000fd5b7f4e487b7100000000000000000000000000000000000000000000000000000000600052604160045260246000fd5b6000601f19601f8301169050919050565b6135e2816133aa565b81146135ed57600080fd5b50565b6135f9816133bc565b811461360457600080fd5b50565b613610816133c8565b811461361b57600080fd5b50565b61362781613414565b811461363257600080fd5b5056fea2646970667358221220df44d372aa42ec44c657d9bc511fcfb96eaf81c2d399e6a0041fa7f192a7e83564736f6c63430008000033",
  "immutableReferences": {},
  "source": "// SPDX-License-Identifier: UNLICENSED\r\npragma solidity ^0.8.0;\r\n\r\nimport \"@openzeppelin/contracts/utils/Address.sol\";\r\nimport \"@openzeppelin/contracts/token/ERC721/extensions/ERC721URIStorage.sol\";\r\nimport \"@openzeppelin/contracts/access/Ownable.sol\";\r\nimport \"@openzeppelin/contracts/utils/Counters.sol\";\r\n\r\ncontract Art is ERC721URIStorage, Ownable {\r\n    using Counters for Counters.Counter;\r\n\r\n    uint256 public totalSuply;\r\n    Counters.Counter private _tokenIds;\r\n\r\n    mapping(string => bool) public existed;\r\n    mapping(address => uint256[]) public ownerToTokenId;\r\n\r\n    constructor(string memory name, string memory symbol)\r\n        ERC721(name, symbol)\r\n    {}\r\n\r\n    function createNewNFT(address _to, string memory _hash)\r\n        public\r\n        onlyOwner\r\n        returns (uint256)\r\n    {\r\n        require(!existed[_hash], \"Art: NFT is existed\");\r\n\r\n        _tokenIds.increment();\r\n        uint256 newItemId = _tokenIds.current();\r\n\r\n        existed[_hash] = true;\r\n        ownerToTokenId[_to].push(newItemId);\r\n\r\n        _mint(_to, newItemId);\r\n        _setTokenURI(newItemId, _hash);\r\n\r\n        totalSuply++;\r\n\r\n        return newItemId;\r\n    }\r\n\r\n    function setOwnerToTokenId(address _to, uint256 _tokenId) public onlyOwner {\r\n        ownerToTokenId[_to].push(_tokenId);\r\n    }\r\n\r\n    function _baseURI() internal pure override returns (string memory) {\r\n        return \"https://ipfs.io/ipfs/\";\r\n    }\r\n\r\n    function getTokenList(address _owner)\r\n        public\r\n        view\r\n        returns (uint256[] memory)\r\n    {\r\n        uint256[] memory arr = new uint256[](balanceOf(_owner));\r\n        uint256 index = 0;\r\n        for (uint256 i = 0; i < ownerToTokenId[_owner].length; i++) {\r\n            if (ownerOf(ownerToTokenId[_owner][i]) == _owner) {\r\n                arr[index] = ownerToTokenId[_owner][i];\r\n                index++;\r\n            }\r\n        }\r\n        return arr;\r\n    }\r\n}\r\n",
  "sourcePath": "E:\\MNM\\UIT-SE301.M11-BidDapp\\marketplace-contracts\\contracts\\Art.sol",
  "compiler": {
    "name": "solc",
    "version": "0.8.0+commit.c7dfd78e.Emscripten.clang"
  },
  "schemaVersion": "3.4.3",
  "updatedAt": "2021-12-05T02:54:05.578Z",
  "devdoc": {
    "kind": "dev",
    "methods": {
      "approve(address,uint256)": {
        "details": "See {IERC721-approve}."
      },
      "balanceOf(address)": {
        "details": "See {IERC721-balanceOf}."
      },
      "getApproved(uint256)": {
        "details": "See {IERC721-getApproved}."
      },
      "isApprovedForAll(address,address)": {
        "details": "See {IERC721-isApprovedForAll}."
      },
      "name()": {
        "details": "See {IERC721Metadata-name}."
      },
      "owner()": {
        "details": "Returns the address of the current owner."
      },
      "ownerOf(uint256)": {
        "details": "See {IERC721-ownerOf}."
      },
      "renounceOwnership()": {
        "details": "Leaves the contract without owner. It will not be possible to call `onlyOwner` functions anymore. Can only be called by the current owner. NOTE: Renouncing ownership will leave the contract without an owner, thereby removing any functionality that is only available to the owner."
      },
      "safeTransferFrom(address,address,uint256)": {
        "details": "See {IERC721-safeTransferFrom}."
      },
      "safeTransferFrom(address,address,uint256,bytes)": {
        "details": "See {IERC721-safeTransferFrom}."
      },
      "setApprovalForAll(address,bool)": {
        "details": "See {IERC721-setApprovalForAll}."
      },
      "supportsInterface(bytes4)": {
        "details": "See {IERC165-supportsInterface}."
      },
      "symbol()": {
        "details": "See {IERC721Metadata-symbol}."
      },
      "tokenURI(uint256)": {
        "details": "See {IERC721Metadata-tokenURI}."
      },
      "transferFrom(address,address,uint256)": {
        "details": "See {IERC721-transferFrom}."
      },
      "transferOwnership(address)": {
        "details": "Transfers ownership of the contract to a new account (`newOwner`). Can only be called by the current owner."
      }
    },
    "version": 1
  },
  "userdoc": {
    "kind": "user",
    "methods": {},
    "version": 1
  }
}