{
  "contractName": "MarketPlace",
  "abi": [
    {
      "inputs": [
        {
          "internalType": "address",
          "name": "_artAddr",
          "type": "address"
        }
      ],
      "stateMutability": "nonpayable",
      "type": "constructor"
    },
    {
      "anonymous": false,
      "inputs": [
        {
          "indexed": true,
          "internalType": "uint256",
          "name": "_tokenId",
          "type": "uint256"
        },
        {
          "indexed": true,
          "internalType": "address",
          "name": "_oldOwner",
          "type": "address"
        },
        {
          "indexed": true,
          "internalType": "address",
          "name": "_newOwner",
          "type": "address"
        },
        {
          "indexed": false,
          "internalType": "uint256",
          "name": "_index",
          "type": "uint256"
        }
      ],
      "name": "ApproveOffer",
      "type": "event"
    },
    {
      "anonymous": false,
      "inputs": [
        {
          "indexed": true,
          "internalType": "uint256",
          "name": "_tokenId",
          "type": "uint256"
        },
        {
          "indexed": false,
          "internalType": "uint256",
          "name": "_amount",
          "type": "uint256"
        },
        {
          "indexed": false,
          "internalType": "address",
          "name": "_token20",
          "type": "address"
        },
        {
          "indexed": true,
          "internalType": "address",
          "name": "_bargainer",
          "type": "address"
        },
        {
          "indexed": false,
          "internalType": "uint256",
          "name": "_timeout",
          "type": "uint256"
        }
      ],
      "name": "NewOffer",
      "type": "event"
    },
    {
      "anonymous": false,
      "inputs": [
        {
          "indexed": true,
          "internalType": "address",
          "name": "previousOwner",
          "type": "address"
        },
        {
          "indexed": true,
          "internalType": "address",
          "name": "newOwner",
          "type": "address"
        }
      ],
      "name": "OwnershipTransferred",
      "type": "event"
    },
    {
      "anonymous": false,
      "inputs": [
        {
          "indexed": true,
          "internalType": "uint256",
          "name": "_tokenId",
          "type": "uint256"
        },
        {
          "indexed": true,
          "internalType": "address",
          "name": "_oldOwner",
          "type": "address"
        },
        {
          "indexed": true,
          "internalType": "address",
          "name": "_newOwner",
          "type": "address"
        }
      ],
      "name": "Transfer",
      "type": "event"
    },
    {
      "inputs": [
        {
          "internalType": "string",
          "name": "",
          "type": "string"
        }
      ],
      "name": "checkTransactionId",
      "outputs": [
        {
          "internalType": "bool",
          "name": "",
          "type": "bool"
        }
      ],
      "stateMutability": "view",
      "type": "function"
    },
    {
      "inputs": [
        {
          "internalType": "string",
          "name": "",
          "type": "string"
        }
      ],
      "name": "imageExisted",
      "outputs": [
        {
          "internalType": "bool",
          "name": "",
          "type": "bool"
        }
      ],
      "stateMutability": "view",
      "type": "function"
    },
    {
      "inputs": [],
      "name": "owner",
      "outputs": [
        {
          "internalType": "address",
          "name": "",
          "type": "address"
        }
      ],
      "stateMutability": "view",
      "type": "function"
    },
    {
      "inputs": [],
      "name": "renounceOwnership",
      "outputs": [],
      "stateMutability": "nonpayable",
      "type": "function"
    },
    {
      "inputs": [
        {
          "internalType": "uint256",
          "name": "",
          "type": "uint256"
        }
      ],
      "name": "sellers",
      "outputs": [
        {
          "internalType": "address",
          "name": "",
          "type": "address"
        }
      ],
      "stateMutability": "view",
      "type": "function"
    },
    {
      "inputs": [
        {
          "internalType": "uint256",
          "name": "",
          "type": "uint256"
        },
        {
          "internalType": "uint256",
          "name": "",
          "type": "uint256"
        }
      ],
      "name": "tokenIdToOffer",
      "outputs": [
        {
          "internalType": "uint256",
          "name": "tokenId",
          "type": "uint256"
        },
        {
          "internalType": "uint256",
          "name": "amount",
          "type": "uint256"
        },
        {
          "internalType": "address",
          "name": "token20",
          "type": "address"
        },
        {
          "internalType": "address",
          "name": "bargainer",
          "type": "address"
        },
        {
          "internalType": "bool",
          "name": "accepted",
          "type": "bool"
        },
        {
          "internalType": "uint256",
          "name": "timeout",
          "type": "uint256"
        }
      ],
      "stateMutability": "view",
      "type": "function"
    },
    {
      "inputs": [
        {
          "internalType": "uint256",
          "name": "",
          "type": "uint256"
        }
      ],
      "name": "tokenIdToProduct",
      "outputs": [
        {
          "internalType": "uint256",
          "name": "tokenId",
          "type": "uint256"
        },
        {
          "internalType": "uint256",
          "name": "price",
          "type": "uint256"
        },
        {
          "internalType": "bool",
          "name": "listing",
          "type": "bool"
        },
        {
          "internalType": "bool",
          "name": "selling",
          "type": "bool"
        },
        {
          "internalType": "address",
          "name": "creator",
          "type": "address"
        },
        {
          "internalType": "uint256",
          "name": "rate",
          "type": "uint256"
        },
        {
          "internalType": "uint256",
          "name": "timestamp",
          "type": "uint256"
        }
      ],
      "stateMutability": "view",
      "type": "function"
    },
    {
      "inputs": [
        {
          "internalType": "address",
          "name": "newOwner",
          "type": "address"
        }
      ],
      "name": "transferOwnership",
      "outputs": [],
      "stateMutability": "nonpayable",
      "type": "function"
    },
    {
      "inputs": [
        {
          "internalType": "address",
          "name": "",
          "type": "address"
        },
        {
          "internalType": "uint256",
          "name": "",
          "type": "uint256"
        }
      ],
      "name": "userToProduct",
      "outputs": [
        {
          "internalType": "uint256",
          "name": "tokenId",
          "type": "uint256"
        },
        {
          "internalType": "uint256",
          "name": "price",
          "type": "uint256"
        },
        {
          "internalType": "bool",
          "name": "listing",
          "type": "bool"
        },
        {
          "internalType": "bool",
          "name": "selling",
          "type": "bool"
        },
        {
          "internalType": "address",
          "name": "creator",
          "type": "address"
        },
        {
          "internalType": "uint256",
          "name": "rate",
          "type": "uint256"
        },
        {
          "internalType": "uint256",
          "name": "timestamp",
          "type": "uint256"
        }
      ],
      "stateMutability": "view",
      "type": "function"
    },
    {
      "inputs": [
        {
          "internalType": "address",
          "name": "_artAddr",
          "type": "address"
        }
      ],
      "name": "setArtAddr",
      "outputs": [],
      "stateMutability": "nonpayable",
      "type": "function"
    },
    {
      "inputs": [
        {
          "internalType": "string",
          "name": "_hashInfo",
          "type": "string"
        },
        {
          "internalType": "string",
          "name": "_hashImg",
          "type": "string"
        },
        {
          "internalType": "uint256",
          "name": "_price",
          "type": "uint256"
        }
      ],
      "name": "createNewProduct",
      "outputs": [],
      "stateMutability": "nonpayable",
      "type": "function"
    },
    {
      "inputs": [
        {
          "internalType": "uint256",
          "name": "_tokenId",
          "type": "uint256"
        }
      ],
      "name": "setListOrNot",
      "outputs": [],
      "stateMutability": "nonpayable",
      "type": "function"
    },
    {
      "inputs": [
        {
          "internalType": "uint256",
          "name": "_tokenId",
          "type": "uint256"
        }
      ],
      "name": "setSellOrNot",
      "outputs": [],
      "stateMutability": "nonpayable",
      "type": "function"
    },
    {
      "inputs": [
        {
          "internalType": "uint256",
          "name": "_tokenId",
          "type": "uint256"
        },
        {
          "internalType": "uint256",
          "name": "_price",
          "type": "uint256"
        }
      ],
      "name": "setPrice",
      "outputs": [],
      "stateMutability": "nonpayable",
      "type": "function"
    },
    {
      "inputs": [
        {
          "internalType": "address",
          "name": "_user",
          "type": "address"
        }
      ],
      "name": "getProductListCreated",
      "outputs": [
        {
          "components": [
            {
              "internalType": "uint256",
              "name": "tokenId",
              "type": "uint256"
            },
            {
              "internalType": "uint256",
              "name": "price",
              "type": "uint256"
            },
            {
              "internalType": "bool",
              "name": "listing",
              "type": "bool"
            },
            {
              "internalType": "bool",
              "name": "selling",
              "type": "bool"
            },
            {
              "internalType": "address",
              "name": "creator",
              "type": "address"
            },
            {
              "internalType": "uint256",
              "name": "rate",
              "type": "uint256"
            },
            {
              "internalType": "uint256",
              "name": "timestamp",
              "type": "uint256"
            }
          ],
          "internalType": "struct IMarketPlace.Product[]",
          "name": "",
          "type": "tuple[]"
        }
      ],
      "stateMutability": "view",
      "type": "function"
    },
    {
      "inputs": [
        {
          "internalType": "uint256",
          "name": "_tokenId",
          "type": "uint256"
        }
      ],
      "name": "buyWithETH",
      "outputs": [],
      "stateMutability": "payable",
      "type": "function"
    },
    {
      "inputs": [
        {
          "internalType": "uint256",
          "name": "_tokenId",
          "type": "uint256"
        },
        {
          "internalType": "string",
          "name": "traransactionId",
          "type": "string"
        }
      ],
      "name": "buyWithCurrency",
      "outputs": [],
      "stateMutability": "nonpayable",
      "type": "function"
    },
    {
      "inputs": [
        {
          "internalType": "address",
          "name": "_owner",
          "type": "address"
        }
      ],
      "name": "getProducListOwnable",
      "outputs": [
        {
          "components": [
            {
              "internalType": "uint256",
              "name": "tokenId",
              "type": "uint256"
            },
            {
              "internalType": "uint256",
              "name": "price",
              "type": "uint256"
            },
            {
              "internalType": "bool",
              "name": "listing",
              "type": "bool"
            },
            {
              "internalType": "bool",
              "name": "selling",
              "type": "bool"
            },
            {
              "internalType": "address",
              "name": "creator",
              "type": "address"
            },
            {
              "internalType": "uint256",
              "name": "rate",
              "type": "uint256"
            },
            {
              "internalType": "uint256",
              "name": "timestamp",
              "type": "uint256"
            }
          ],
          "internalType": "struct IMarketPlace.Product[]",
          "name": "",
          "type": "tuple[]"
        }
      ],
      "stateMutability": "view",
      "type": "function"
    },
    {
      "inputs": [
        {
          "internalType": "uint256",
          "name": "_tokenId",
          "type": "uint256"
        },
        {
          "internalType": "uint256",
          "name": "_amount",
          "type": "uint256"
        },
        {
          "internalType": "address",
          "name": "_token20",
          "type": "address"
        },
        {
          "internalType": "uint256",
          "name": "_timeout",
          "type": "uint256"
        }
      ],
      "name": "offer",
      "outputs": [],
      "stateMutability": "nonpayable",
      "type": "function"
    },
    {
      "inputs": [
        {
          "internalType": "uint256",
          "name": "_tokenId",
          "type": "uint256"
        },
        {
          "internalType": "uint256",
          "name": "_index",
          "type": "uint256"
        },
        {
          "internalType": "uint256",
          "name": "_timeout",
          "type": "uint256"
        }
      ],
      "name": "restartOffer",
      "outputs": [],
      "stateMutability": "nonpayable",
      "type": "function"
    },
    {
      "inputs": [
        {
          "internalType": "uint256",
          "name": "_tokenId",
          "type": "uint256"
        },
        {
          "internalType": "uint256",
          "name": "_index",
          "type": "uint256"
        }
      ],
      "name": "getOffer",
      "outputs": [
        {
          "components": [
            {
              "internalType": "uint256",
              "name": "tokenId",
              "type": "uint256"
            },
            {
              "internalType": "uint256",
              "name": "amount",
              "type": "uint256"
            },
            {
              "internalType": "address",
              "name": "token20",
              "type": "address"
            },
            {
              "internalType": "address",
              "name": "bargainer",
              "type": "address"
            },
            {
              "internalType": "bool",
              "name": "accepted",
              "type": "bool"
            },
            {
              "internalType": "uint256",
              "name": "timeout",
              "type": "uint256"
            }
          ],
          "internalType": "struct IMarketPlace.Offer",
          "name": "",
          "type": "tuple"
        }
      ],
      "stateMutability": "view",
      "type": "function"
    },
    {
      "inputs": [
        {
          "internalType": "uint256",
          "name": "_tokenId",
          "type": "uint256"
        }
      ],
      "name": "getOffer",
      "outputs": [
        {
          "components": [
            {
              "internalType": "uint256",
              "name": "tokenId",
              "type": "uint256"
            },
            {
              "internalType": "uint256",
              "name": "amount",
              "type": "uint256"
            },
            {
              "internalType": "address",
              "name": "token20",
              "type": "address"
            },
            {
              "internalType": "address",
              "name": "bargainer",
              "type": "address"
            },
            {
              "internalType": "bool",
              "name": "accepted",
              "type": "bool"
            },
            {
              "internalType": "uint256",
              "name": "timeout",
              "type": "uint256"
            }
          ],
          "internalType": "struct IMarketPlace.Offer[]",
          "name": "",
          "type": "tuple[]"
        }
      ],
      "stateMutability": "view",
      "type": "function"
    },
    {
      "inputs": [
        {
          "internalType": "uint256",
          "name": "_tokenId",
          "type": "uint256"
        },
        {
          "internalType": "uint256",
          "name": "_index",
          "type": "uint256"
        }
      ],
      "name": "approveOffer",
      "outputs": [],
      "stateMutability": "nonpayable",
      "type": "function"
    }
  ],
  "bytecode": "0x60806040523480156200001157600080fd5b50604051620044b9380380620044b9833981810160405281019062000037919062000182565b620000576200004b6200009f60201b60201c565b620000a760201b60201c565b80600160006101000a81548173ffffffffffffffffffffffffffffffffffffffff021916908373ffffffffffffffffffffffffffffffffffffffff16021790555050620001fc565b600033905090565b60008060009054906101000a900473ffffffffffffffffffffffffffffffffffffffff169050816000806101000a81548173ffffffffffffffffffffffffffffffffffffffff021916908373ffffffffffffffffffffffffffffffffffffffff1602179055508173ffffffffffffffffffffffffffffffffffffffff168173ffffffffffffffffffffffffffffffffffffffff167f8be0079c531659141344cd1fd0a4f28419497f9722a3daafe3b4186f6b6457e060405160405180910390a35050565b6000815190506200017c81620001e2565b92915050565b6000602082840312156200019557600080fd5b6000620001a5848285016200016b565b91505092915050565b6000620001bb82620001c2565b9050919050565b600073ffffffffffffffffffffffffffffffffffffffff82169050919050565b620001ed81620001ae565b8114620001f957600080fd5b50565b6142ad806200020c6000396000f3fe6080604052600436106101405760003560e01c806394dc9cf3116100b6578063cee26ed51161006f578063cee26ed51461047e578063f16f3730146104bb578063f2fde38b146104e4578063f7d975771461050d578063fd7acfe714610536578063fdfe74851461057357610140565b806394dc9cf31461034d578063a2bd1c4114610369578063acb1ba67146103ac578063b6f949c3146103d5578063b9b8245c14610418578063c7ea1e8b1461044157610140565b8063656ea7d211610108578063656ea7d21461024e57806366a65af114610277578063688ec404146102b9578063715018a6146102e25780638a195912146102f95780638da5cb5b1461032257610140565b80632509907c146101455780632e7a34b7146101825780633cd0cd67146101ab5780634579268a146101e85780635e7524e714610225575b600080fd5b34801561015157600080fd5b5061016c6004803603810190610167919061328a565b6105b0565b6040516101799190613c2a565b60405180910390f35b34801561018e57600080fd5b506101a960048036038101906101a49190613192565b6105e6565b005b3480156101b757600080fd5b506101d260048036038101906101cd91906133f0565b6106e0565b6040516101df9190613d67565b60405180910390f35b3480156101f457600080fd5b5061020f600480360381019061020a919061334a565b61085c565b60405161021c9190613be6565b60405180910390f35b34801561023157600080fd5b5061024c6004803603810190610247919061339c565b6109b3565b005b34801561025a57600080fd5b506102756004803603810190610270919061334a565b610c43565b005b34801561028357600080fd5b5061029e600480360381019061029991906133f0565b610d70565b6040516102b096959493929190613dd4565b60405180910390f35b3480156102c557600080fd5b506102e060048036038101906102db919061348f565b610e16565b005b3480156102ee57600080fd5b506102f7610fa4565b005b34801561030557600080fd5b50610320600480360381019061031b919061334a565b61102c565b005b34801561032e57600080fd5b50610337611159565b6040516103449190613b12565b60405180910390f35b6103676004803603810190610362919061334a565b611182565b005b34801561037557600080fd5b50610390600480360381019061038b91906131e4565b61146e565b6040516103a39796959493929190613e35565b60405180910390f35b3480156103b857600080fd5b506103d360048036038101906103ce919061342c565b611507565b005b3480156103e157600080fd5b506103fc60048036038101906103f7919061334a565b6118c5565b60405161040f9796959493929190613e35565b60405180910390f35b34801561042457600080fd5b5061043f600480360381019061043a91906132cb565b611941565b005b34801561044d57600080fd5b5061046860048036038101906104639190613192565b611d91565b6040516104759190613c08565b60405180910390f35b34801561048a57600080fd5b506104a560048036038101906104a0919061334a565b612046565b6040516104b29190613b12565b60405180910390f35b3480156104c757600080fd5b506104e260048036038101906104dd91906133f0565b612085565b005b3480156104f057600080fd5b5061050b60048036038101906105069190613192565b612491565b005b34801561051957600080fd5b50610534600480360381019061052f91906133f0565b612589565b005b34801561054257600080fd5b5061055d6004803603810190610558919061328a565b612692565b60405161056a9190613c2a565b60405180910390f35b34801561057f57600080fd5b5061059a60048036038101906105959190613192565b6126c8565b6040516105a79190613c08565b60405180910390f35b6006818051602081018201805184825260208301602085012081835280955050505050506000915054906101000a900460ff1681565b6105ee61281a565b73ffffffffffffffffffffffffffffffffffffffff1661060c611159565b73ffffffffffffffffffffffffffffffffffffffff1614610662576040517f08c379a000000000000000000000000000000000000000000000000000000000815260040161065990613ce7565b60405180910390fd5b600073ffffffffffffffffffffffffffffffffffffffff168173ffffffffffffffffffffffffffffffffffffffff16141561069c57600080fd5b80600160006101000a81548173ffffffffffffffffffffffffffffffffffffffff021916908373ffffffffffffffffffffffffffffffffffffffff16021790555050565b6106e8612f70565b600560008481526020019081526020016000208054905082111561070b57600080fd5b600560008481526020019081526020016000208281548110610756577f4e487b7100000000000000000000000000000000000000000000000000000000600052603260045260246000fd5b90600052602060002090600502016040518060c001604052908160008201548152602001600182015481526020016002820160009054906101000a900473ffffffffffffffffffffffffffffffffffffffff1673ffffffffffffffffffffffffffffffffffffffff1673ffffffffffffffffffffffffffffffffffffffff1681526020016003820160009054906101000a900473ffffffffffffffffffffffffffffffffffffffff1673ffffffffffffffffffffffffffffffffffffffff1673ffffffffffffffffffffffffffffffffffffffff1681526020016003820160149054906101000a900460ff16151515158152602001600482015481525050905092915050565b606060056000838152602001908152602001600020805480602002602001604051908101604052809291908181526020016000905b828210156109a857838290600052602060002090600502016040518060c001604052908160008201548152602001600182015481526020016002820160009054906101000a900473ffffffffffffffffffffffffffffffffffffffff1673ffffffffffffffffffffffffffffffffffffffff1673ffffffffffffffffffffffffffffffffffffffff1681526020016003820160009054906101000a900473ffffffffffffffffffffffffffffffffffffffff1673ffffffffffffffffffffffffffffffffffffffff1673ffffffffffffffffffffffffffffffffffffffff1681526020016003820160149054906101000a900460ff1615151515815260200160048201548152505081526020019060010190610891565b505050509050919050565b60006003600084815260200190815260200160002090508060020160019054906101000a900460ff166109e557600080fd5b3073ffffffffffffffffffffffffffffffffffffffff16600160009054906101000a900473ffffffffffffffffffffffffffffffffffffffff1673ffffffffffffffffffffffffffffffffffffffff1663081812fc856040518263ffffffff1660e01b8152600401610a579190613d82565b60206040518083038186803b158015610a6f57600080fd5b505afa158015610a83573d6000803e3d6000fd5b505050506040513d601f19601f82011682018060405250810190610aa791906131bb565b73ffffffffffffffffffffffffffffffffffffffff1614610ac757600080fd5b600160009054906101000a900473ffffffffffffffffffffffffffffffffffffffff1673ffffffffffffffffffffffffffffffffffffffff16636352211e846040518263ffffffff1660e01b8152600401610b229190613d82565b60206040518083038186803b158015610b3a57600080fd5b505afa158015610b4e573d6000803e3d6000fd5b505050506040513d601f19601f82011682018060405250810190610b7291906131bb565b73ffffffffffffffffffffffffffffffffffffffff163373ffffffffffffffffffffffffffffffffffffffff161415610baa57600080fd5b600682604051610bba9190613ae6565b908152602001604051809103902060009054906101000a900460ff1615610be057600080fd5b6001600683604051610bf29190613ae6565b908152602001604051809103902060006101000a81548160ff02191690831515021790555060008160020160016101000a81548160ff021916908315150217905550610c3e3384612822565b505050565b803373ffffffffffffffffffffffffffffffffffffffff16600160009054906101000a900473ffffffffffffffffffffffffffffffffffffffff1673ffffffffffffffffffffffffffffffffffffffff16636352211e836040518263ffffffff1660e01b8152600401610cb69190613d82565b60206040518083038186803b158015610cce57600080fd5b505afa158015610ce2573d6000803e3d6000fd5b505050506040513d601f19601f82011682018060405250810190610d0691906131bb565b73ffffffffffffffffffffffffffffffffffffffff1614610d2657600080fd5b60006003600084815260200190815260200160002090508060020160009054906101000a900460ff16158160020160006101000a81548160ff021916908315150217905550505050565b60056020528160005260406000208181548110610d8c57600080fd5b9060005260206000209060050201600091509150508060000154908060010154908060020160009054906101000a900473ffffffffffffffffffffffffffffffffffffffff16908060030160009054906101000a900473ffffffffffffffffffffffffffffffffffffffff16908060030160149054906101000a900460ff16908060040154905086565b3373ffffffffffffffffffffffffffffffffffffffff16600560008581526020019081526020016000208381548110610e78577f4e487b7100000000000000000000000000000000000000000000000000000000600052603260045260246000fd5b906000526020600020906005020160030160009054906101000a900473ffffffffffffffffffffffffffffffffffffffff1673ffffffffffffffffffffffffffffffffffffffff1614610eca57600080fd5b42600560008581526020019081526020016000208381548110610f16577f4e487b7100000000000000000000000000000000000000000000000000000000600052603260045260246000fd5b90600052602060002090600502016004015410610f3257600080fd5b428111610f3e57600080fd5b80600560008581526020019081526020016000208381548110610f8a577f4e487b7100000000000000000000000000000000000000000000000000000000600052603260045260246000fd5b906000526020600020906005020160040181905550505050565b610fac61281a565b73ffffffffffffffffffffffffffffffffffffffff16610fca611159565b73ffffffffffffffffffffffffffffffffffffffff1614611020576040517f08c379a000000000000000000000000000000000000000000000000000000000815260040161101790613ce7565b60405180910390fd5b61102a6000612a51565b565b803373ffffffffffffffffffffffffffffffffffffffff16600160009054906101000a900473ffffffffffffffffffffffffffffffffffffffff1673ffffffffffffffffffffffffffffffffffffffff16636352211e836040518263ffffffff1660e01b815260040161109f9190613d82565b60206040518083038186803b1580156110b757600080fd5b505afa1580156110cb573d6000803e3d6000fd5b505050506040513d601f19601f820116820180604052508101906110ef91906131bb565b73ffffffffffffffffffffffffffffffffffffffff161461110f57600080fd5b60006003600084815260200190815260200160002090508060020160019054906101000a900460ff16158160020160016101000a81548160ff021916908315150217905550505050565b60008060009054906101000a900473ffffffffffffffffffffffffffffffffffffffff16905090565b60006003600083815260200190815260200160002090508060020160019054906101000a900460ff166111b457600080fd5b3073ffffffffffffffffffffffffffffffffffffffff16600160009054906101000a900473ffffffffffffffffffffffffffffffffffffffff1673ffffffffffffffffffffffffffffffffffffffff1663081812fc846040518263ffffffff1660e01b81526004016112269190613d82565b60206040518083038186803b15801561123e57600080fd5b505afa158015611252573d6000803e3d6000fd5b505050506040513d601f19601f8201168201806040525081019061127691906131bb565b73ffffffffffffffffffffffffffffffffffffffff161461129657600080fd5b806001015434146112a657600080fd5b600160009054906101000a900473ffffffffffffffffffffffffffffffffffffffff1673ffffffffffffffffffffffffffffffffffffffff16636352211e836040518263ffffffff1660e01b81526004016113019190613d82565b60206040518083038186803b15801561131957600080fd5b505afa15801561132d573d6000803e3d6000fd5b505050506040513d601f19601f8201168201806040525081019061135191906131bb565b73ffffffffffffffffffffffffffffffffffffffff163373ffffffffffffffffffffffffffffffffffffffff16141561138957600080fd5b60008160020160016101000a81548160ff0219169083151502179055506000600160009054906101000a900473ffffffffffffffffffffffffffffffffffffffff1673ffffffffffffffffffffffffffffffffffffffff16636352211e846040518263ffffffff1660e01b81526004016114039190613d82565b60206040518083038186803b15801561141b57600080fd5b505afa15801561142f573d6000803e3d6000fd5b505050506040513d601f19601f8201168201806040525081019061145391906131bb565b905061145f3384612822565b6114698134612b15565b505050565b6004602052816000526040600020818154811061148a57600080fd5b9060005260206000209060050201600091509150508060000154908060010154908060020160009054906101000a900460ff16908060020160019054906101000a900460ff16908060020160029054906101000a900473ffffffffffffffffffffffffffffffffffffffff16908060030154908060040154905087565b60006003600086815260200190815260200160002090508060020160019054906101000a900460ff1661153957600080fd5b600073ffffffffffffffffffffffffffffffffffffffff16600160009054906101000a900473ffffffffffffffffffffffffffffffffffffffff1673ffffffffffffffffffffffffffffffffffffffff16636352211e876040518263ffffffff1660e01b81526004016115ac9190613d82565b60206040518083038186803b1580156115c457600080fd5b505afa1580156115d8573d6000803e3d6000fd5b505050506040513d601f19601f820116820180604052508101906115fc91906131bb565b73ffffffffffffffffffffffffffffffffffffffff16141561161d57600080fd5b600073ffffffffffffffffffffffffffffffffffffffff168373ffffffffffffffffffffffffffffffffffffffff16141561165757600080fd5b838373ffffffffffffffffffffffffffffffffffffffff1663dd62ed3e33306040518363ffffffff1660e01b8152600401611693929190613b2d565b60206040518083038186803b1580156116ab57600080fd5b505afa1580156116bf573d6000803e3d6000fd5b505050506040513d601f19601f820116820180604052508101906116e39190613373565b10156116ee57600080fd5b4282116116fa57600080fd5b600560008681526020019081526020016000206040518060c001604052808781526020018681526020018573ffffffffffffffffffffffffffffffffffffffff1681526020013373ffffffffffffffffffffffffffffffffffffffff168152602001600015158152602001848152509080600181540180825580915050600190039060005260206000209060050201600090919091909150600082015181600001556020820151816001015560408201518160020160006101000a81548173ffffffffffffffffffffffffffffffffffffffff021916908373ffffffffffffffffffffffffffffffffffffffff16021790555060608201518160030160006101000a81548173ffffffffffffffffffffffffffffffffffffffff021916908373ffffffffffffffffffffffffffffffffffffffff16021790555060808201518160030160146101000a81548160ff02191690831515021790555060a0820151816004015550503373ffffffffffffffffffffffffffffffffffffffff16857f8b4d06c200b17b9c1150172953ceb6fa3e7ace7623f6f933707badfa52c354cf868686426118a79190613fe0565b6040516118b693929190613d9d565b60405180910390a35050505050565b60036020528060005260406000206000915090508060000154908060010154908060020160009054906101000a900460ff16908060020160019054906101000a900460ff16908060020160029054906101000a900473ffffffffffffffffffffffffffffffffffffffff16908060030154908060040154905087565b6007826040516119519190613ae6565b908152602001604051809103902060009054906101000a900460ff16156119ad576040517f08c379a00000000000000000000000000000000000000000000000000000000081526004016119a490613d07565b60405180910390fd5b6000600160009054906101000a900473ffffffffffffffffffffffffffffffffffffffff1673ffffffffffffffffffffffffffffffffffffffff16637cf87f9d33866040518363ffffffff1660e01b8152600401611a0c929190613b8d565b602060405180830381600087803b158015611a2657600080fd5b505af1158015611a3a573d6000803e3d6000fd5b505050506040513d601f19601f82011682018060405250810190611a5e9190613373565b90506002339080600181540180825580915050600190039060005260206000200160009091909190916101000a81548173ffffffffffffffffffffffffffffffffffffffff021916908373ffffffffffffffffffffffffffffffffffffffff1602179055506001600784604051611ad59190613ae6565b908152602001604051809103902060006101000a81548160ff02191690831515021790555060006040518060e001604052808381526020018481526020016001151581526020016001151581526020013373ffffffffffffffffffffffffffffffffffffffff16815260200160008152602001428152509050600460003373ffffffffffffffffffffffffffffffffffffffff1673ffffffffffffffffffffffffffffffffffffffff168152602001908152602001600020819080600181540180825580915050600190039060005260206000209060050201600090919091909150600082015181600001556020820151816001015560408201518160020160006101000a81548160ff02191690831515021790555060608201518160020160016101000a81548160ff02191690831515021790555060808201518160020160026101000a81548173ffffffffffffffffffffffffffffffffffffffff021916908373ffffffffffffffffffffffffffffffffffffffff16021790555060a0820151816003015560c0820151816004015550508060036000848152602001908152602001600020600082015181600001556020820151816001015560408201518160020160006101000a81548160ff02191690831515021790555060608201518160020160016101000a81548160ff02191690831515021790555060808201518160020160026101000a81548173ffffffffffffffffffffffffffffffffffffffff021916908373ffffffffffffffffffffffffffffffffffffffff16021790555060a0820151816003015560c082015181600401559050503373ffffffffffffffffffffffffffffffffffffffff16600073ffffffffffffffffffffffffffffffffffffffff16837f0a429aba3d89849a2db0153e4534d95c46a1d83c8109d73893f55ebc44010ff460405160405180910390a45050505050565b60606000600160009054906101000a900473ffffffffffffffffffffffffffffffffffffffff1673ffffffffffffffffffffffffffffffffffffffff1663d8a30732846040518263ffffffff1660e01b8152600401611df09190613b12565b60006040518083038186803b158015611e0857600080fd5b505afa158015611e1c573d6000803e3d6000fd5b505050506040513d6000823e3d601f19601f82011682018060405250810190611e459190613220565b90506000815167ffffffffffffffff811115611e8a577f4e487b7100000000000000000000000000000000000000000000000000000000600052604160045260246000fd5b604051908082528060200260200182016040528015611ec357816020015b611eb0612fd4565b815260200190600190039081611ea85790505b50905060005b825181101561203b5760036000848381518110611f0f577f4e487b7100000000000000000000000000000000000000000000000000000000600052603260045260246000fd5b602002602001015181526020019081526020016000206040518060e001604052908160008201548152602001600182015481526020016002820160009054906101000a900460ff161515151581526020016002820160019054906101000a900460ff161515151581526020016002820160029054906101000a900473ffffffffffffffffffffffffffffffffffffffff1673ffffffffffffffffffffffffffffffffffffffff1673ffffffffffffffffffffffffffffffffffffffff1681526020016003820154815260200160048201548152505082828151811061201d577f4e487b7100000000000000000000000000000000000000000000000000000000600052603260045260246000fd5b602002602001018190525080806120339061414b565b915050611ec9565b508092505050919050565b6002818154811061205657600080fd5b906000526020600020016000915054906101000a900473ffffffffffffffffffffffffffffffffffffffff1681565b600060036000848152602001908152602001600020905060006120a884846106e0565b90508160020160019054906101000a900460ff166120c557600080fd5b3073ffffffffffffffffffffffffffffffffffffffff16600160009054906101000a900473ffffffffffffffffffffffffffffffffffffffff1673ffffffffffffffffffffffffffffffffffffffff1663081812fc866040518263ffffffff1660e01b81526004016121379190613d82565b60206040518083038186803b15801561214f57600080fd5b505afa158015612163573d6000803e3d6000fd5b505050506040513d601f19601f8201168201806040525081019061218791906131bb565b73ffffffffffffffffffffffffffffffffffffffff16146121a757600080fd5b3373ffffffffffffffffffffffffffffffffffffffff16600160009054906101000a900473ffffffffffffffffffffffffffffffffffffffff1673ffffffffffffffffffffffffffffffffffffffff16636352211e866040518263ffffffff1660e01b81526004016122199190613d82565b60206040518083038186803b15801561223157600080fd5b505afa158015612245573d6000803e3d6000fd5b505050506040513d601f19601f8201168201806040525081019061226991906131bb565b73ffffffffffffffffffffffffffffffffffffffff161461228957600080fd5b60056000858152602001908152602001600020805490508311156122ac57600080fd5b8060a001514211156122bd57600080fd5b600160056000868152602001908152602001600020848154811061230a577f4e487b7100000000000000000000000000000000000000000000000000000000600052603260045260246000fd5b906000526020600020906005020160030160146101000a81548160ff02191690831515021790555060008260020160016101000a81548160ff02191690831515021790555061235d816060015185612822565b6000600160009054906101000a900473ffffffffffffffffffffffffffffffffffffffff1673ffffffffffffffffffffffffffffffffffffffff16636352211e866040518263ffffffff1660e01b81526004016123ba9190613d82565b60206040518083038186803b1580156123d257600080fd5b505afa1580156123e6573d6000803e3d6000fd5b505050506040513d601f19601f8201168201806040525081019061240a91906131bb565b905061242482604001518360600151838560200151612b3b565b3373ffffffffffffffffffffffffffffffffffffffff168173ffffffffffffffffffffffffffffffffffffffff16867f4ec4ba0f51972e72b52d0a288922dc59ab70adba5344f6e3e645b995e701a944876040516124829190613d82565b60405180910390a45050505050565b61249961281a565b73ffffffffffffffffffffffffffffffffffffffff166124b7611159565b73ffffffffffffffffffffffffffffffffffffffff161461250d576040517f08c379a000000000000000000000000000000000000000000000000000000000815260040161250490613ce7565b60405180910390fd5b600073ffffffffffffffffffffffffffffffffffffffff168173ffffffffffffffffffffffffffffffffffffffff16141561257d576040517f08c379a000000000000000000000000000000000000000000000000000000000815260040161257490613c67565b60405180910390fd5b61258681612a51565b50565b813373ffffffffffffffffffffffffffffffffffffffff16600160009054906101000a900473ffffffffffffffffffffffffffffffffffffffff1673ffffffffffffffffffffffffffffffffffffffff16636352211e836040518263ffffffff1660e01b81526004016125fc9190613d82565b60206040518083038186803b15801561261457600080fd5b505afa158015612628573d6000803e3d6000fd5b505050506040513d601f19601f8201168201806040525081019061264c91906131bb565b73ffffffffffffffffffffffffffffffffffffffff161461266c57600080fd5b600060036000858152602001908152602001600020905082816001018190555050505050565b6007818051602081018201805184825260208301602085012081835280955050505050506000915054906101000a900460ff1681565b6060600460008373ffffffffffffffffffffffffffffffffffffffff1673ffffffffffffffffffffffffffffffffffffffff168152602001908152602001600020805480602002602001604051908101604052809291908181526020016000905b8282101561280f57838290600052602060002090600502016040518060e001604052908160008201548152602001600182015481526020016002820160009054906101000a900460ff161515151581526020016002820160019054906101000a900460ff161515151581526020016002820160029054906101000a900473ffffffffffffffffffffffffffffffffffffffff1673ffffffffffffffffffffffffffffffffffffffff1673ffffffffffffffffffffffffffffffffffffffff1681526020016003820154815260200160048201548152505081526020019060010190612729565b505050509050919050565b600033905090565b600160009054906101000a900473ffffffffffffffffffffffffffffffffffffffff1673ffffffffffffffffffffffffffffffffffffffff1663d78dd96b83836040518363ffffffff1660e01b815260040161287f929190613bbd565b600060405180830381600087803b15801561289957600080fd5b505af11580156128ad573d6000803e3d6000fd5b505050506000600160009054906101000a900473ffffffffffffffffffffffffffffffffffffffff1673ffffffffffffffffffffffffffffffffffffffff16636352211e836040518263ffffffff1660e01b815260040161290e9190613d82565b60206040518083038186803b15801561292657600080fd5b505afa15801561293a573d6000803e3d6000fd5b505050506040513d601f19601f8201168201806040525081019061295e91906131bb565b9050600160009054906101000a900473ffffffffffffffffffffffffffffffffffffffff1673ffffffffffffffffffffffffffffffffffffffff166342842e0e8285856040518463ffffffff1660e01b81526004016129bf93929190613b56565b600060405180830381600087803b1580156129d957600080fd5b505af11580156129ed573d6000803e3d6000fd5b505050508273ffffffffffffffffffffffffffffffffffffffff168173ffffffffffffffffffffffffffffffffffffffff16837f0a429aba3d89849a2db0153e4534d95c46a1d83c8109d73893f55ebc44010ff460405160405180910390a4505050565b60008060009054906101000a900473ffffffffffffffffffffffffffffffffffffffff169050816000806101000a81548173ffffffffffffffffffffffffffffffffffffffff021916908373ffffffffffffffffffffffffffffffffffffffff1602179055508173ffffffffffffffffffffffffffffffffffffffff168173ffffffffffffffffffffffffffffffffffffffff167f8be0079c531659141344cd1fd0a4f28419497f9722a3daafe3b4186f6b6457e060405160405180910390a35050565b612b37826064606284612b289190614067565b612b329190614036565b612b86565b5050565b612b8083836064605f85612b4f9190614067565b612b599190614036565b8773ffffffffffffffffffffffffffffffffffffffff16612c7a909392919063ffffffff16565b50505050565b80471015612bc9576040517f08c379a0000000000000000000000000000000000000000000000000000000008152600401612bc090613ca7565b60405180910390fd5b60008273ffffffffffffffffffffffffffffffffffffffff1682604051612bef90613afd565b60006040518083038185875af1925050503d8060008114612c2c576040519150601f19603f3d011682016040523d82523d6000602084013e612c31565b606091505b5050905080612c75576040517f08c379a0000000000000000000000000000000000000000000000000000000008152600401612c6c90613c87565b60405180910390fd5b505050565b612cfd846323b872dd60e01b858585604051602401612c9b93929190613b56565b604051602081830303815290604052907bffffffffffffffffffffffffffffffffffffffffffffffffffffffff19166020820180517bffffffffffffffffffffffffffffffffffffffffffffffffffffffff8381831617835250505050612d03565b50505050565b6000612d65826040518060400160405280602081526020017f5361666545524332303a206c6f772d6c6576656c2063616c6c206661696c65648152508573ffffffffffffffffffffffffffffffffffffffff16612dca9092919063ffffffff16565b9050600081511115612dc55780806020019051810190612d859190613261565b612dc4576040517f08c379a0000000000000000000000000000000000000000000000000000000008152600401612dbb90613d47565b60405180910390fd5b5b505050565b6060612dd98484600085612de2565b90509392505050565b606082471015612e27576040517f08c379a0000000000000000000000000000000000000000000000000000000008152600401612e1e90613cc7565b60405180910390fd5b612e3085612ef6565b612e6f576040517f08c379a0000000000000000000000000000000000000000000000000000000008152600401612e6690613d27565b60405180910390fd5b6000808673ffffffffffffffffffffffffffffffffffffffff168587604051612e989190613acf565b60006040518083038185875af1925050503d8060008114612ed5576040519150601f19603f3d011682016040523d82523d6000602084013e612eda565b606091505b5091509150612eea828286612f09565b92505050949350505050565b600080823b905060008111915050919050565b60608315612f1957829050612f69565b600083511115612f2c5782518084602001fd5b816040517f08c379a0000000000000000000000000000000000000000000000000000000008152600401612f609190613c45565b60405180910390fd5b9392505050565b6040518060c001604052806000815260200160008152602001600073ffffffffffffffffffffffffffffffffffffffff168152602001600073ffffffffffffffffffffffffffffffffffffffff168152602001600015158152602001600081525090565b6040518060e001604052806000815260200160008152602001600015158152602001600015158152602001600073ffffffffffffffffffffffffffffffffffffffff16815260200160008152602001600081525090565b600061303e61303984613ed5565b613ea4565b9050808382526020820190508285602086028201111561305d57600080fd5b60005b8581101561308d5781613073888261317d565b845260208401935060208301925050600181019050613060565b5050509392505050565b60006130aa6130a584613f01565b613ea4565b9050828152602081018484840111156130c257600080fd5b6130cd848285614109565b509392505050565b6000813590506130e481614232565b92915050565b6000815190506130f981614232565b92915050565b600082601f83011261311057600080fd5b815161312084826020860161302b565b91505092915050565b60008151905061313881614249565b92915050565b600082601f83011261314f57600080fd5b813561315f848260208601613097565b91505092915050565b60008135905061317781614260565b92915050565b60008151905061318c81614260565b92915050565b6000602082840312156131a457600080fd5b60006131b2848285016130d5565b91505092915050565b6000602082840312156131cd57600080fd5b60006131db848285016130ea565b91505092915050565b600080604083850312156131f757600080fd5b6000613205858286016130d5565b925050602061321685828601613168565b9150509250929050565b60006020828403121561323257600080fd5b600082015167ffffffffffffffff81111561324c57600080fd5b613258848285016130ff565b91505092915050565b60006020828403121561327357600080fd5b600061328184828501613129565b91505092915050565b60006020828403121561329c57600080fd5b600082013567ffffffffffffffff8111156132b657600080fd5b6132c28482850161313e565b91505092915050565b6000806000606084860312156132e057600080fd5b600084013567ffffffffffffffff8111156132fa57600080fd5b6133068682870161313e565b935050602084013567ffffffffffffffff81111561332357600080fd5b61332f8682870161313e565b925050604061334086828701613168565b9150509250925092565b60006020828403121561335c57600080fd5b600061336a84828501613168565b91505092915050565b60006020828403121561338557600080fd5b60006133938482850161317d565b91505092915050565b600080604083850312156133af57600080fd5b60006133bd85828601613168565b925050602083013567ffffffffffffffff8111156133da57600080fd5b6133e68582860161313e565b9150509250929050565b6000806040838503121561340357600080fd5b600061341185828601613168565b925050602061342285828601613168565b9150509250929050565b6000806000806080858703121561344257600080fd5b600061345087828801613168565b945050602061346187828801613168565b9350506040613472878288016130d5565b925050606061348387828801613168565b91505092959194509250565b6000806000606084860312156134a457600080fd5b60006134b286828701613168565b93505060206134c386828701613168565b92505060406134d486828701613168565b9150509250925092565b60006134ea838361392d565b60c08301905092915050565b60006135028383613a23565b60e08301905092915050565b613517816140c1565b82525050565b613526816140c1565b82525050565b600061353782613f51565b6135418185613f97565b935061354c83613f31565b8060005b8381101561357d57815161356488826134de565b975061356f83613f7d565b925050600181019050613550565b5085935050505092915050565b600061359582613f5c565b61359f8185613fa8565b93506135aa83613f41565b8060005b838110156135db5781516135c288826134f6565b97506135cd83613f8a565b9250506001810190506135ae565b5085935050505092915050565b6135f1816140d3565b82525050565b613600816140d3565b82525050565b600061361182613f67565b61361b8185613fb9565b935061362b818560208601614118565b80840191505092915050565b600061364282613f72565b61364c8185613fc4565b935061365c818560208601614118565b61366581614221565b840191505092915050565b600061367b82613f72565b6136858185613fd5565b9350613695818560208601614118565b80840191505092915050565b60006136ae602683613fc4565b91507f4f776e61626c653a206e6577206f776e657220697320746865207a65726f206160008301527f64647265737300000000000000000000000000000000000000000000000000006020830152604082019050919050565b6000613714603a83613fc4565b91507f416464726573733a20756e61626c6520746f2073656e642076616c75652c207260008301527f6563697069656e74206d617920686176652072657665727465640000000000006020830152604082019050919050565b600061377a601d83613fc4565b91507f416464726573733a20696e73756666696369656e742062616c616e63650000006000830152602082019050919050565b60006137ba602683613fc4565b91507f416464726573733a20696e73756666696369656e742062616c616e636520666f60008301527f722063616c6c00000000000000000000000000000000000000000000000000006020830152604082019050919050565b6000613820602083613fc4565b91507f4f776e61626c653a2063616c6c6572206973206e6f7420746865206f776e65726000830152602082019050919050565b6000613860600083613fb9565b9150600082019050919050565b600061387a600083613fc4565b9150600082019050919050565b6000613894601d83613fc4565b91507f416464726573733a2063616c6c20746f206e6f6e2d636f6e74726163740000006000830152602082019050919050565b60006138d4602a83613fc4565b91507f5361666545524332303a204552433230206f7065726174696f6e20646964206e60008301527f6f742073756363656564000000000000000000000000000000000000000000006020830152604082019050919050565b60c0820160008201516139436000850182613ab1565b5060208201516139566020850182613ab1565b506040820151613969604085018261350e565b50606082015161397c606085018261350e565b50608082015161398f60808501826135e8565b5060a08201516139a260a0850182613ab1565b50505050565b60c0820160008201516139be6000850182613ab1565b5060208201516139d16020850182613ab1565b5060408201516139e4604085018261350e565b5060608201516139f7606085018261350e565b506080820151613a0a60808501826135e8565b5060a0820151613a1d60a0850182613ab1565b50505050565b60e082016000820151613a396000850182613ab1565b506020820151613a4c6020850182613ab1565b506040820151613a5f60408501826135e8565b506060820151613a7260608501826135e8565b506080820151613a85608085018261350e565b5060a0820151613a9860a0850182613ab1565b5060c0820151613aab60c0850182613ab1565b50505050565b613aba816140ff565b82525050565b613ac9816140ff565b82525050565b6000613adb8284613606565b915081905092915050565b6000613af28284613670565b915081905092915050565b6000613b0882613853565b9150819050919050565b6000602082019050613b27600083018461351d565b92915050565b6000604082019050613b42600083018561351d565b613b4f602083018461351d565b9392505050565b6000606082019050613b6b600083018661351d565b613b78602083018561351d565b613b856040830184613ac0565b949350505050565b6000604082019050613ba2600083018561351d565b8181036020830152613bb48184613637565b90509392505050565b6000604082019050613bd2600083018561351d565b613bdf6020830184613ac0565b9392505050565b60006020820190508181036000830152613c00818461352c565b905092915050565b60006020820190508181036000830152613c22818461358a565b905092915050565b6000602082019050613c3f60008301846135f7565b92915050565b60006020820190508181036000830152613c5f8184613637565b905092915050565b60006020820190508181036000830152613c80816136a1565b9050919050565b60006020820190508181036000830152613ca081613707565b9050919050565b60006020820190508181036000830152613cc08161376d565b9050919050565b60006020820190508181036000830152613ce0816137ad565b9050919050565b60006020820190508181036000830152613d0081613813565b9050919050565b60006020820190508181036000830152613d208161386d565b9050919050565b60006020820190508181036000830152613d4081613887565b9050919050565b60006020820190508181036000830152613d60816138c7565b9050919050565b600060c082019050613d7c60008301846139a8565b92915050565b6000602082019050613d976000830184613ac0565b92915050565b6000606082019050613db26000830186613ac0565b613dbf602083018561351d565b613dcc6040830184613ac0565b949350505050565b600060c082019050613de96000830189613ac0565b613df66020830188613ac0565b613e03604083018761351d565b613e10606083018661351d565b613e1d60808301856135f7565b613e2a60a0830184613ac0565b979650505050505050565b600060e082019050613e4a600083018a613ac0565b613e576020830189613ac0565b613e6460408301886135f7565b613e7160608301876135f7565b613e7e608083018661351d565b613e8b60a0830185613ac0565b613e9860c0830184613ac0565b98975050505050505050565b6000604051905081810181811067ffffffffffffffff82111715613ecb57613eca6141f2565b5b8060405250919050565b600067ffffffffffffffff821115613ef057613eef6141f2565b5b602082029050602081019050919050565b600067ffffffffffffffff821115613f1c57613f1b6141f2565b5b601f19601f8301169050602081019050919050565b6000819050602082019050919050565b6000819050602082019050919050565b600081519050919050565b600081519050919050565b600081519050919050565b600081519050919050565b6000602082019050919050565b6000602082019050919050565b600082825260208201905092915050565b600082825260208201905092915050565b600081905092915050565b600082825260208201905092915050565b600081905092915050565b6000613feb826140ff565b9150613ff6836140ff565b9250827fffffffffffffffffffffffffffffffffffffffffffffffffffffffffffffffff0382111561402b5761402a614194565b5b828201905092915050565b6000614041826140ff565b915061404c836140ff565b92508261405c5761405b6141c3565b5b828204905092915050565b6000614072826140ff565b915061407d836140ff565b9250817fffffffffffffffffffffffffffffffffffffffffffffffffffffffffffffffff04831182151516156140b6576140b5614194565b5b828202905092915050565b60006140cc826140df565b9050919050565b60008115159050919050565b600073ffffffffffffffffffffffffffffffffffffffff82169050919050565b6000819050919050565b82818337600083830152505050565b60005b8381101561413657808201518184015260208101905061411b565b83811115614145576000848401525b50505050565b6000614156826140ff565b91507fffffffffffffffffffffffffffffffffffffffffffffffffffffffffffffffff82141561418957614188614194565b5b600182019050919050565b7f4e487b7100000000000000000000000000000000000000000000000000000000600052601160045260246000fd5b7f4e487b7100000000000000000000000000000000000000000000000000000000600052601260045260246000fd5b7f4e487b7100000000000000000000000000000000000000000000000000000000600052604160045260246000fd5b6000601f19601f8301169050919050565b61423b816140c1565b811461424657600080fd5b50565b614252816140d3565b811461425d57600080fd5b50565b614269816140ff565b811461427457600080fd5b5056fea2646970667358221220c9b4c7a24e1df6cb3c3682f03673e70f9fa6f42bde8bae9ec17d5744e5b881c364736f6c63430008000033",
  "immutableReferences": {},
  "source": "// SPDX-License-Identifier: UNLICENSED\r\npragma solidity ^0.8.0;\r\n\r\nimport \"@openzeppelin/contracts/access/Ownable.sol\";\r\nimport \"@openzeppelin/contracts/token/ERC20/IERC20.sol\";\r\nimport \"@openzeppelin/contracts/utils/Address.sol\";\r\nimport \"@openzeppelin/contracts/token/ERC20/utils/SafeERC20.sol\";\r\nimport \"./Art.sol\";\r\nimport \"./interfaces/IMarketPlace.sol\";\r\n\r\ncontract MarketPlace is Ownable, IMarketPlace {\r\n    using SafeERC20 for IERC20;\r\n\r\n    Art art;\r\n\r\n    address[] public sellers;\r\n    mapping(uint256 => Product) public tokenIdToProduct;\r\n    mapping(address => Product[]) public userToProduct; //creator anf their product\r\n    mapping(uint256 => Offer[]) public tokenIdToOffer;\r\n    mapping(string => bool) public checkTransactionId;\r\n    mapping(string => bool) public imageExisted;\r\n\r\n    modifier onlyOwnerOfToken(uint256 _tokenId) {\r\n        require(art.ownerOf(_tokenId) == msg.sender);\r\n        _;\r\n    }\r\n\r\n    /**\r\n     * @dev Sets the values for {art}.\r\n     *\r\n     * This value can be immutable: they can only be set once during\r\n     * construction.\r\n     */\r\n    constructor(address _artAddr) {\r\n        art = Art(_artAddr);\r\n    }\r\n\r\n    /**\r\n     * @dev See {IMarketplace-setArtAddr}.\r\n     *\r\n     * Requirements:\r\n     *\r\n     * - `_artAddr` cannot be the zero address.\r\n     * - Only owner have right to call this function.\r\n     */\r\n    function setArtAddr(address _artAddr) public override onlyOwner {\r\n        require(_artAddr != address(0));\r\n        art = Art(_artAddr);\r\n    }\r\n\r\n    /**\r\n     * @dev See {IMarketplace-createNewProduct}.\r\n     *\r\n     * Emits an {Transfer} event indicating the successful NFT generation\r\n     *\r\n     * Requirements:\r\n     *\r\n     * - `_hashImg` use only once.\r\n     */\r\n    function createNewProduct(\r\n        string memory _hashInfo,\r\n        string memory _hashImg,\r\n        uint256 _price\r\n    ) public override {\r\n        require(!imageExisted[_hashImg], \"\");\r\n        uint256 _tokenId = art.createNewNFT(msg.sender, _hashInfo);\r\n        sellers.push(msg.sender);\r\n        imageExisted[_hashImg] = true;\r\n        Product memory product = Product(\r\n            _tokenId,\r\n            _price,\r\n            true,\r\n            true,\r\n            msg.sender,\r\n            0,\r\n            block.timestamp\r\n        );\r\n        userToProduct[msg.sender].push(product);\r\n        tokenIdToProduct[_tokenId] = product;\r\n        // art.approve(address(this), _tokenId);\r\n        emit Transfer(_tokenId, address(0), msg.sender);\r\n    } //goi kem approve\r\n\r\n    /**\r\n     * @dev See {IMarketplace-setListOrNot}.\r\n     */\r\n    function setListOrNot(uint256 _tokenId)\r\n        public\r\n        override\r\n        onlyOwnerOfToken(_tokenId)\r\n    {\r\n        Product storage product = tokenIdToProduct[_tokenId];\r\n        product.listing = !product.listing;\r\n    }\r\n\r\n    /**\r\n     * @dev See {IMarketplace-setSellOrNot}.\r\n     */\r\n    //neu tu false sang true thi phai goi kem approve\r\n    function setSellOrNot(uint256 _tokenId)\r\n        public\r\n        override\r\n        onlyOwnerOfToken(_tokenId)\r\n    {\r\n        Product storage product = tokenIdToProduct[_tokenId];\r\n        product.selling = !product.selling;\r\n    }\r\n\r\n    /**\r\n     * @dev See {IMarketplace-setPrice}.\r\n     *\r\n     * Requirements:\r\n     *\r\n     * - Only owner of `_tokenId` can call this function.\r\n     */\r\n    function setPrice(uint256 _tokenId, uint256 _price)\r\n        public\r\n        override\r\n        onlyOwnerOfToken(_tokenId)\r\n    {\r\n        Product storage product = tokenIdToProduct[_tokenId];\r\n        product.price = _price;\r\n    }\r\n\r\n    /**\r\n     * @dev See {IMarketplace-getProductListCreated}.\r\n     */\r\n    function getProductListCreated(address _user)\r\n        public\r\n        view\r\n        override\r\n        returns (Product[] memory)\r\n    {\r\n        return userToProduct[_user];\r\n    }\r\n\r\n    /**\r\n     * @dev See {IMarketplace-buyWithETH}.\r\n     *\r\n     * Requirements:\r\n     *\r\n     * - `_tokenId` product must be selling on market place\r\n     * - must be approved first\r\n     * - send value ETH equal price of product\r\n     * - caller can not be owner of `_tokenId`\r\n     */\r\n    //Phai approve truoc\r\n    function buyWithETH(uint256 _tokenId) public payable override {\r\n        Product storage _product = tokenIdToProduct[_tokenId];\r\n        require(_product.selling);\r\n        require(art.getApproved(_tokenId) == address(this));\r\n        require(msg.value == _product.price);\r\n        require(msg.sender != art.ownerOf(_tokenId));\r\n\r\n        _product.selling = false;\r\n        address _owner = art.ownerOf(_tokenId);\r\n\r\n        setOwnerRight(msg.sender, _tokenId);\r\n        payment(_owner, msg.value);\r\n    }\r\n\r\n    /**\r\n     * @dev See {IMarketplace-buyWithCurrency}.\r\n     *\r\n     * Requirements:\r\n     *\r\n     * - `_tokenId` product must be selling on market place\r\n     * - must be approved first\r\n     * - caller can not be owner of `_tokenId`\r\n     * - `traransactionId` haven't used yet\r\n     */\r\n    function buyWithCurrency(uint256 _tokenId, string memory traransactionId)\r\n        public\r\n        override\r\n    {\r\n        Product storage _product = tokenIdToProduct[_tokenId];\r\n        require(_product.selling);\r\n        require(art.getApproved(_tokenId) == address(this));\r\n        require(msg.sender != art.ownerOf(_tokenId));\r\n        require(!checkTransactionId[traransactionId]);\r\n\r\n        checkTransactionId[traransactionId] = true;\r\n        _product.selling = false;\r\n\r\n        setOwnerRight(msg.sender, _tokenId);\r\n    }\r\n\r\n    /**\r\n     * @dev See {IMarketplace-getProducListOwnable}.\r\n     */\r\n    //lay ra danh sach cac san pham so huu\r\n    function getProducListOwnable(address _owner)\r\n        public\r\n        view\r\n        override\r\n        returns (Product[] memory)\r\n    {\r\n        uint256[] memory arr = art.getTokenList(_owner);\r\n        Product[] memory productList = new Product[](arr.length);\r\n        for (uint256 i = 0; i < arr.length; i++) {\r\n            productList[i] = tokenIdToProduct[arr[i]];\r\n        }\r\n        return productList;\r\n    }\r\n\r\n    /**\r\n     * @dev See {IMarketplace-offer}.\r\n     *\r\n     * Emits an {NewOffer} event indicating the successful NewOffer generation\r\n     *\r\n     * Requirements:\r\n     *\r\n     * - `_tokenId`'s owner  must be selling on market place\r\n     * - `_token20` address can not address zero\r\n     * - caller must approve `_amount` token erc20 for this contract\r\n     * - `_timeout` must be time in the future\r\n     */\r\n    //Phai goi kem approve token cho contractt nay\r\n    function offer(\r\n        uint256 _tokenId,\r\n        uint256 _amount,\r\n        address _token20,\r\n        uint256 _timeout\r\n    ) public override {\r\n        Product storage _product = tokenIdToProduct[_tokenId];\r\n        require(_product.selling);\r\n        require(art.ownerOf(_tokenId) != address(0));\r\n        require(_token20 != address(0));\r\n        require(\r\n            IERC20(_token20).allowance(msg.sender, address(this)) >= _amount\r\n        );\r\n        require(_timeout > block.timestamp);\r\n        // IERC20(_token20).approve(address(this), _amount);\r\n\r\n        tokenIdToOffer[_tokenId].push(\r\n            Offer(_tokenId, _amount, _token20, msg.sender, false, _timeout)\r\n        );\r\n        emit NewOffer(\r\n            _tokenId,\r\n            _amount,\r\n            _token20,\r\n            msg.sender,\r\n            block.timestamp + _timeout\r\n        );\r\n    }\r\n\r\n    /**\r\n     * @dev See {IMarketplace-restartOffer}.\r\n     *\r\n     * Requirements:\r\n     *\r\n     * - `_tokenId`'s owner  must be selling on market place\r\n     * - caller must be creator of offer\r\n     * - `_timeout` must be time in the future\r\n     */\r\n    function restartOffer(\r\n        uint256 _tokenId,\r\n        uint256 _index,\r\n        uint256 _timeout\r\n    ) public override {\r\n        require(tokenIdToOffer[_tokenId][_index].bargainer == msg.sender);\r\n        require(tokenIdToOffer[_tokenId][_index].timeout < block.timestamp);\r\n        require(_timeout > block.timestamp);\r\n        tokenIdToOffer[_tokenId][_index].timeout = _timeout;\r\n    }\r\n\r\n    /**\r\n     * @dev See {IMarketplace-getOffer}.\r\n     */\r\n    function getOffer(uint256 _tokenId, uint256 _index)\r\n        public\r\n        view\r\n        override\r\n        returns (Offer memory)\r\n    {\r\n        require(_index <= tokenIdToOffer[_tokenId].length);\r\n        return tokenIdToOffer[_tokenId][_index];\r\n    }\r\n\r\n    function getOffer(uint256 _tokenId) public view returns (Offer[] memory) {\r\n        return tokenIdToOffer[_tokenId];\r\n    }\r\n\r\n    /**\r\n     * @dev See {IMarketplace-approveOffer}.\r\n     *\r\n     * Emits an {ApproveOffer} event indicating the successful approved offer\r\n     *\r\n     * Requirements:\r\n     *\r\n     * - `_tokenId`'s owner  must be selling on market place\r\n     * and approved for this contract\r\n     * - caller must be owner  of `_tokenId` product\r\n     * - `_timeout` of offer must be greater than current timestamp\r\n     */\r\n    //ch s hu da approve token721 hay chua\r\n    function approveOffer(uint256 _tokenId, uint256 _index) public override {\r\n        Product storage _product = tokenIdToProduct[_tokenId];\r\n        Offer memory _offer = getOffer(_tokenId, _index);\r\n\r\n        require(_product.selling);\r\n        require(art.getApproved(_tokenId) == address(this));\r\n        require(art.ownerOf(_tokenId) == msg.sender);\r\n        require(_index <= tokenIdToOffer[_tokenId].length);\r\n        require(block.timestamp <= _offer.timeout);\r\n\r\n        tokenIdToOffer[_tokenId][_index].accepted = true;\r\n        _product.selling = false;\r\n\r\n        setOwnerRight(_offer.bargainer, _tokenId);\r\n\r\n        address _owner = art.ownerOf(_tokenId);\r\n\r\n        payment(_offer.token20, _offer.bargainer, _owner, _offer.amount);\r\n\r\n        emit ApproveOffer(_tokenId, _owner, msg.sender, _index);\r\n    }\r\n\r\n    /**\r\n     * @dev Update new owner for product.\r\n     */\r\n    function setOwnerRight(address buyer, uint256 _tokenId) internal {\r\n        art.setOwnerToTokenId(buyer, _tokenId);\r\n        address _owner = art.ownerOf(_tokenId);\r\n        art.safeTransferFrom(_owner, buyer, _tokenId);\r\n        emit Transfer(_tokenId, _owner, buyer);\r\n    }\r\n\r\n    /**\r\n     * @dev Payment for ETH.\r\n     */\r\n    function payment(address _owner, uint256 _value) internal {\r\n        Address.sendValue(payable(_owner), (_value * 98) / 100);\r\n    }\r\n\r\n    /**\r\n     * @dev Payment for ERC20.\r\n     */\r\n    function payment(\r\n        address _tokenEr20,\r\n        address _sender,\r\n        address _receipent,\r\n        uint256 _amount\r\n    ) internal {\r\n        IERC20(_tokenEr20).safeTransferFrom(\r\n            _sender,\r\n            _receipent,\r\n            (_amount * 95) / 100\r\n        );\r\n    }\r\n}\r\n",
  "sourcePath": "E:\\MNM\\UIT-SE301.M11-BidDapp\\marketplace-contracts\\contracts\\MarketPlace.sol",
  "compiler": {
    "name": "solc",
    "version": "0.8.0+commit.c7dfd78e.Emscripten.clang"
  },
  "schemaVersion": "3.4.3",
  "updatedAt": "2021-12-05T02:54:05.650Z",
  "devdoc": {
    "kind": "dev",
    "methods": {
      "approveOffer(uint256,uint256)": {
        "details": "See {IMarketplace-approveOffer}. Emits an {ApproveOffer} event indicating the successful approved offer Requirements: - `_tokenId`'s owner  must be selling on market place and approved for this contract - caller must be owner  of `_tokenId` product - `_timeout` of offer must be greater than current timestamp"
      },
      "buyWithCurrency(uint256,string)": {
        "details": "See {IMarketplace-buyWithCurrency}. Requirements: - `_tokenId` product must be selling on market place - must be approved first - caller can not be owner of `_tokenId` - `traransactionId` haven't used yet"
      },
      "buyWithETH(uint256)": {
        "details": "See {IMarketplace-buyWithETH}. Requirements: - `_tokenId` product must be selling on market place - must be approved first - send value ETH equal price of product - caller can not be owner of `_tokenId`"
      },
      "constructor": {
        "details": "Sets the values for {art}. This value can be immutable: they can only be set once during construction."
      },
      "createNewProduct(string,string,uint256)": {
        "details": "See {IMarketplace-createNewProduct}. Emits an {Transfer} event indicating the successful NFT generation Requirements: - `_hashImg` use only once."
      },
      "getOffer(uint256,uint256)": {
        "details": "See {IMarketplace-getOffer}."
      },
      "getProducListOwnable(address)": {
        "details": "See {IMarketplace-getProducListOwnable}."
      },
      "getProductListCreated(address)": {
        "details": "See {IMarketplace-getProductListCreated}."
      },
      "offer(uint256,uint256,address,uint256)": {
        "details": "See {IMarketplace-offer}. Emits an {NewOffer} event indicating the successful NewOffer generation Requirements: - `_tokenId`'s owner  must be selling on market place - `_token20` address can not address zero - caller must approve `_amount` token erc20 for this contract - `_timeout` must be time in the future"
      },
      "owner()": {
        "details": "Returns the address of the current owner."
      },
      "renounceOwnership()": {
        "details": "Leaves the contract without owner. It will not be possible to call `onlyOwner` functions anymore. Can only be called by the current owner. NOTE: Renouncing ownership will leave the contract without an owner, thereby removing any functionality that is only available to the owner."
      },
      "restartOffer(uint256,uint256,uint256)": {
        "details": "See {IMarketplace-restartOffer}. Requirements: - `_tokenId`'s owner  must be selling on market place - caller must be creator of offer - `_timeout` must be time in the future"
      },
      "setArtAddr(address)": {
        "details": "See {IMarketplace-setArtAddr}. Requirements: - `_artAddr` cannot be the zero address. - Only owner have right to call this function."
      },
      "setListOrNot(uint256)": {
        "details": "See {IMarketplace-setListOrNot}."
      },
      "setPrice(uint256,uint256)": {
        "details": "See {IMarketplace-setPrice}. Requirements: - Only owner of `_tokenId` can call this function."
      },
      "setSellOrNot(uint256)": {
        "details": "See {IMarketplace-setSellOrNot}."
      },
      "transferOwnership(address)": {
        "details": "Transfers ownership of the contract to a new account (`newOwner`). Can only be called by the current owner."
      }
    },
    "version": 1
  },
  "userdoc": {
    "kind": "user",
    "methods": {},
    "version": 1
  }
}